{
  "address": "0x378722df99320614d97990Ddf6901a2Be1F59541",
  "abi": [
    {
      "inputs": [],
      "stateMutability": "nonpayable",
      "type": "constructor"
    },
    {
      "anonymous": false,
      "inputs": [
        {
          "indexed": true,
          "internalType": "address",
          "name": "owner",
          "type": "address"
        },
        {
          "indexed": true,
          "internalType": "address",
          "name": "approved",
          "type": "address"
        },
        {
          "indexed": true,
          "internalType": "uint256",
          "name": "tokenId",
          "type": "uint256"
        }
      ],
      "name": "Approval",
      "type": "event"
    },
    {
      "anonymous": false,
      "inputs": [
        {
          "indexed": true,
          "internalType": "address",
          "name": "owner",
          "type": "address"
        },
        {
          "indexed": true,
          "internalType": "address",
          "name": "operator",
          "type": "address"
        },
        {
          "indexed": false,
          "internalType": "bool",
          "name": "approved",
          "type": "bool"
        }
      ],
      "name": "ApprovalForAll",
      "type": "event"
    },
    {
      "anonymous": false,
      "inputs": [
        {
          "indexed": true,
          "internalType": "bytes32",
          "name": "role",
          "type": "bytes32"
        },
        {
          "indexed": true,
          "internalType": "bytes32",
          "name": "previousAdminRole",
          "type": "bytes32"
        },
        {
          "indexed": true,
          "internalType": "bytes32",
          "name": "newAdminRole",
          "type": "bytes32"
        }
      ],
      "name": "RoleAdminChanged",
      "type": "event"
    },
    {
      "anonymous": false,
      "inputs": [
        {
          "indexed": true,
          "internalType": "bytes32",
          "name": "role",
          "type": "bytes32"
        },
        {
          "indexed": true,
          "internalType": "address",
          "name": "account",
          "type": "address"
        },
        {
          "indexed": true,
          "internalType": "address",
          "name": "sender",
          "type": "address"
        }
      ],
      "name": "RoleGranted",
      "type": "event"
    },
    {
      "anonymous": false,
      "inputs": [
        {
          "indexed": true,
          "internalType": "bytes32",
          "name": "role",
          "type": "bytes32"
        },
        {
          "indexed": true,
          "internalType": "address",
          "name": "account",
          "type": "address"
        },
        {
          "indexed": true,
          "internalType": "address",
          "name": "sender",
          "type": "address"
        }
      ],
      "name": "RoleRevoked",
      "type": "event"
    },
    {
      "anonymous": false,
      "inputs": [
        {
          "indexed": true,
          "internalType": "address",
          "name": "from",
          "type": "address"
        },
        {
          "indexed": true,
          "internalType": "address",
          "name": "to",
          "type": "address"
        },
        {
          "indexed": true,
          "internalType": "uint256",
          "name": "tokenId",
          "type": "uint256"
        }
      ],
      "name": "Transfer",
      "type": "event"
    },
    {
      "stateMutability": "payable",
      "type": "fallback"
    },
    {
      "inputs": [],
      "name": "DEFAULT_ADMIN_ROLE",
      "outputs": [
        {
          "internalType": "bytes32",
          "name": "",
          "type": "bytes32"
        }
      ],
      "stateMutability": "view",
      "type": "function"
    },
    {
      "inputs": [],
      "name": "MANAGER_ROLE",
      "outputs": [
        {
          "internalType": "bytes32",
          "name": "",
          "type": "bytes32"
        }
      ],
      "stateMutability": "view",
      "type": "function"
    },
    {
      "inputs": [
        {
          "internalType": "address",
          "name": "_user",
          "type": "address"
        },
        {
          "internalType": "uint256",
          "name": "_vibeId",
          "type": "uint256"
        }
      ],
      "name": "addAdminVibe",
      "outputs": [],
      "stateMutability": "nonpayable",
      "type": "function"
    },
    {
      "inputs": [
        {
          "internalType": "address",
          "name": "to",
          "type": "address"
        },
        {
          "internalType": "uint256",
          "name": "tokenId",
          "type": "uint256"
        }
      ],
      "name": "approve",
      "outputs": [],
      "stateMutability": "nonpayable",
      "type": "function"
    },
    {
      "inputs": [
        {
          "internalType": "address",
          "name": "owner",
          "type": "address"
        }
      ],
      "name": "balanceOf",
      "outputs": [
        {
          "internalType": "uint256",
          "name": "",
          "type": "uint256"
        }
      ],
      "stateMutability": "view",
      "type": "function"
    },
    {
      "inputs": [
        {
          "internalType": "uint256",
          "name": "tokenId",
          "type": "uint256"
        }
      ],
      "name": "getApproved",
      "outputs": [
        {
          "internalType": "address",
          "name": "",
          "type": "address"
        }
      ],
      "stateMutability": "view",
      "type": "function"
    },
    {
      "inputs": [
        {
          "internalType": "bytes32",
          "name": "role",
          "type": "bytes32"
        }
      ],
      "name": "getRoleAdmin",
      "outputs": [
        {
          "internalType": "bytes32",
          "name": "",
          "type": "bytes32"
        }
      ],
      "stateMutability": "view",
      "type": "function"
    },
    {
      "inputs": [
        {
          "internalType": "address",
          "name": "_address",
          "type": "address"
        }
      ],
      "name": "getViberForAddress",
      "outputs": [
        {
          "components": [
            {
              "internalType": "uint256",
              "name": "id",
              "type": "uint256"
            },
            {
              "internalType": "string",
              "name": "name",
              "type": "string"
            },
            {
              "internalType": "uint256[]",
              "name": "vibes",
              "type": "uint256[]"
            },
            {
              "internalType": "uint256[]",
              "name": "adminVibes",
              "type": "uint256[]"
            }
          ],
          "internalType": "struct ViberStats",
          "name": "",
          "type": "tuple"
        }
      ],
      "stateMutability": "view",
      "type": "function"
    },
    {
      "inputs": [
        {
          "internalType": "bytes32",
          "name": "role",
          "type": "bytes32"
        },
        {
          "internalType": "address",
          "name": "account",
          "type": "address"
        }
      ],
      "name": "grantRole",
      "outputs": [],
      "stateMutability": "nonpayable",
      "type": "function"
    },
    {
      "inputs": [
        {
          "internalType": "bytes32",
          "name": "role",
          "type": "bytes32"
        },
        {
          "internalType": "address",
          "name": "account",
          "type": "address"
        }
      ],
      "name": "hasRole",
      "outputs": [
        {
          "internalType": "bool",
          "name": "",
          "type": "bool"
        }
      ],
      "stateMutability": "view",
      "type": "function"
    },
    {
      "inputs": [
        {
          "internalType": "address",
          "name": "owner",
          "type": "address"
        },
        {
          "internalType": "address",
          "name": "operator",
          "type": "address"
        }
      ],
      "name": "isApprovedForAll",
      "outputs": [
        {
          "internalType": "bool",
          "name": "",
          "type": "bool"
        }
      ],
      "stateMutability": "view",
      "type": "function"
    },
    {
      "inputs": [
        {
          "internalType": "uint256",
          "name": "_viberId",
          "type": "uint256"
        },
        {
          "internalType": "uint256",
          "name": "_vibeId",
          "type": "uint256"
        }
      ],
      "name": "joinVibe",
      "outputs": [],
      "stateMutability": "nonpayable",
      "type": "function"
    },
    {
      "inputs": [
        {
          "internalType": "address",
          "name": "_address",
          "type": "address"
        },
        {
          "internalType": "string",
          "name": "_name",
          "type": "string"
        }
      ],
      "name": "mint",
      "outputs": [
        {
          "internalType": "uint256",
          "name": "",
          "type": "uint256"
        }
      ],
      "stateMutability": "nonpayable",
      "type": "function"
    },
    {
      "inputs": [],
      "name": "name",
      "outputs": [
        {
          "internalType": "string",
          "name": "",
          "type": "string"
        }
      ],
      "stateMutability": "view",
      "type": "function"
    },
    {
      "inputs": [
        {
          "internalType": "uint256",
          "name": "tokenId",
          "type": "uint256"
        }
      ],
      "name": "ownerOf",
      "outputs": [
        {
          "internalType": "address",
          "name": "",
          "type": "address"
        }
      ],
      "stateMutability": "view",
      "type": "function"
    },
    {
      "inputs": [
        {
          "internalType": "bytes32",
          "name": "role",
          "type": "bytes32"
        },
        {
          "internalType": "address",
          "name": "account",
          "type": "address"
        }
      ],
      "name": "renounceRole",
      "outputs": [],
      "stateMutability": "nonpayable",
      "type": "function"
    },
    {
      "inputs": [
        {
          "internalType": "bytes32",
          "name": "role",
          "type": "bytes32"
        },
        {
          "internalType": "address",
          "name": "account",
          "type": "address"
        }
      ],
      "name": "revokeRole",
      "outputs": [],
      "stateMutability": "nonpayable",
      "type": "function"
    },
    {
      "inputs": [
        {
          "internalType": "address",
          "name": "from",
          "type": "address"
        },
        {
          "internalType": "address",
          "name": "to",
          "type": "address"
        },
        {
          "internalType": "uint256",
          "name": "tokenId",
          "type": "uint256"
        }
      ],
      "name": "safeTransferFrom",
      "outputs": [],
      "stateMutability": "nonpayable",
      "type": "function"
    },
    {
      "inputs": [
        {
          "internalType": "address",
          "name": "from",
          "type": "address"
        },
        {
          "internalType": "address",
          "name": "to",
          "type": "address"
        },
        {
          "internalType": "uint256",
          "name": "tokenId",
          "type": "uint256"
        },
        {
          "internalType": "bytes",
          "name": "data",
          "type": "bytes"
        }
      ],
      "name": "safeTransferFrom",
      "outputs": [],
      "stateMutability": "nonpayable",
      "type": "function"
    },
    {
      "inputs": [
        {
          "internalType": "address",
          "name": "operator",
          "type": "address"
        },
        {
          "internalType": "bool",
          "name": "approved",
          "type": "bool"
        }
      ],
      "name": "setApprovalForAll",
      "outputs": [],
      "stateMutability": "nonpayable",
      "type": "function"
    },
    {
      "inputs": [
        {
          "internalType": "bytes4",
          "name": "interfaceId",
          "type": "bytes4"
        }
      ],
      "name": "supportsInterface",
      "outputs": [
        {
          "internalType": "bool",
          "name": "",
          "type": "bool"
        }
      ],
      "stateMutability": "view",
      "type": "function"
    },
    {
      "inputs": [],
      "name": "symbol",
      "outputs": [
        {
          "internalType": "string",
          "name": "",
          "type": "string"
        }
      ],
      "stateMutability": "view",
      "type": "function"
    },
    {
      "inputs": [
        {
          "internalType": "uint256",
          "name": "index",
          "type": "uint256"
        }
      ],
      "name": "tokenByIndex",
      "outputs": [
        {
          "internalType": "uint256",
          "name": "",
          "type": "uint256"
        }
      ],
      "stateMutability": "view",
      "type": "function"
    },
    {
      "inputs": [
        {
          "internalType": "address",
          "name": "owner",
          "type": "address"
        },
        {
          "internalType": "uint256",
          "name": "index",
          "type": "uint256"
        }
      ],
      "name": "tokenOfOwnerByIndex",
      "outputs": [
        {
          "internalType": "uint256",
          "name": "",
          "type": "uint256"
        }
      ],
      "stateMutability": "view",
      "type": "function"
    },
    {
      "inputs": [
        {
          "internalType": "uint256",
          "name": "tokenId",
          "type": "uint256"
        }
      ],
      "name": "tokenURI",
      "outputs": [
        {
          "internalType": "string",
          "name": "",
          "type": "string"
        }
      ],
      "stateMutability": "view",
      "type": "function"
    },
    {
      "inputs": [],
      "name": "tokensMinted",
      "outputs": [
        {
          "internalType": "uint256",
          "name": "",
          "type": "uint256"
        }
      ],
      "stateMutability": "view",
      "type": "function"
    },
    {
      "inputs": [],
      "name": "totalSupply",
      "outputs": [
        {
          "internalType": "uint256",
          "name": "",
          "type": "uint256"
        }
      ],
      "stateMutability": "view",
      "type": "function"
    },
    {
      "inputs": [
        {
          "internalType": "address",
          "name": "from",
          "type": "address"
        },
        {
          "internalType": "address",
          "name": "to",
          "type": "address"
        },
        {
          "internalType": "uint256",
          "name": "tokenId",
          "type": "uint256"
        }
      ],
      "name": "transferFrom",
      "outputs": [],
      "stateMutability": "nonpayable",
      "type": "function"
    },
    {
      "inputs": [
        {
          "internalType": "uint256",
          "name": "",
          "type": "uint256"
        }
      ],
      "name": "vibers",
      "outputs": [
        {
          "internalType": "uint256",
          "name": "id",
          "type": "uint256"
        },
        {
          "internalType": "string",
          "name": "name",
          "type": "string"
        }
      ],
      "stateMutability": "view",
      "type": "function"
    },
    {
      "stateMutability": "payable",
      "type": "receive"
    }
  ],
  "transactionHash": "0xdd2b1178ad8529438107a4ac2b066b697b397b27fe6ce3c10242a1650cc5518c",
  "args": [],
  "numDeployments": 1,
  "solcInputHash": "bb4704f71d5e3eba32be3beb95249185",
  "bytecode": "0x60806040523480156200001157600080fd5b506040518060400160405280600a8152602001692b34b132902b34b132b960b11b815250604051806040016040528060058152602001642b24a122a960d91b815250816000908162000064919062000201565b50600162000073828262000201565b506200008591506000905033620000b7565b620000b17f241ecf16d79d0f8dbfb92cbc07fe17840425976cf0667f022fe9877caa831b0833620000b7565b620002cd565b6000828152600a602090815260408083206001600160a01b038516845290915290205460ff1662000158576000828152600a602090815260408083206001600160a01b03851684529091529020805460ff19166001179055620001173390565b6001600160a01b0316816001600160a01b0316837f2f8788117e7eff1d82e926ec794901d17c78024a50270940304540a733656f0d60405160405180910390a45b5050565b634e487b7160e01b600052604160045260246000fd5b600181811c908216806200018757607f821691505b602082108103620001a857634e487b7160e01b600052602260045260246000fd5b50919050565b601f821115620001fc57600081815260208120601f850160051c81016020861015620001d75750805b601f850160051c820191505b81811015620001f857828155600101620001e3565b5050505b505050565b81516001600160401b038111156200021d576200021d6200015c565b62000235816200022e845462000172565b84620001ae565b602080601f8311600181146200026d5760008415620002545750858301515b600019600386901b1c1916600185901b178555620001f8565b600085815260208120601f198616915b828110156200029e578886015182559484019460019091019084016200027d565b5085821015620002bd5787850151600019600388901b60f8161c191681555b5050505050600190811b01905550565b612a6e80620002dd6000396000f3fe6080604052600436106101ae5760003560e01c80636de9f32b116100eb578063b88d4fde1161008f578063e985e9c511610061578063e985e9c514610528578063ec87621c14610571578063f4977566146105a5578063fcc6aa52146105d357005b8063b88d4fde146104a8578063c87b56dd146104c8578063d0def521146104e8578063d547741f1461050857005b806391d14854116100c857806391d148541461041857806395d89b411461045e578063a217fddf14610473578063a22cb4651461048857005b80636de9f32b146103c257806370a08231146103d8578063779eae53146103f857005b80632f2ff15d1161015257806342842e0e1161012f57806342842e0e146103355780634f6ccce7146103555780636352211e146103755780636b901c9f1461039557005b80632f2ff15d146102d55780632f745c59146102f557806336568abe1461031557005b8063095ea7b31161018b578063095ea7b31461024657806318160ddd1461026657806323b872dd14610285578063248a9ca3146102a557005b806301ffc9a7146101b757806306fdde03146101ec578063081812fc1461020e57005b366101b557005b005b3480156101c357600080fd5b506101d76101d236600461231a565b6105f3565b60405190151581526020015b60405180910390f35b3480156101f857600080fd5b50610201610604565b6040516101e39190612387565b34801561021a57600080fd5b5061022e61022936600461239a565b610696565b6040516001600160a01b0390911681526020016101e3565b34801561025257600080fd5b506101b56102613660046123cf565b6106bd565b34801561027257600080fd5b506008545b6040519081526020016101e3565b34801561029157600080fd5b506101b56102a03660046123f9565b6107f3565b3480156102b157600080fd5b506102776102c036600461239a565b6000908152600a602052604090206001015490565b3480156102e157600080fd5b506101b56102f0366004612435565b61086a565b34801561030157600080fd5b506102776103103660046123cf565b61088f565b34801561032157600080fd5b506101b5610330366004612435565b610937565b34801561034157600080fd5b506101b56103503660046123f9565b6109c3565b34801561036157600080fd5b5061027761037036600461239a565b6109de565b34801561038157600080fd5b5061022e61039036600461239a565b610a82565b3480156103a157600080fd5b506103b56103b0366004612461565b610ae7565b6040516101e391906124b7565b3480156103ce57600080fd5b50610277600b5481565b3480156103e457600080fd5b506102776103f3366004612461565b610c92565b34801561040457600080fd5b506101b56104133660046123cf565b610d2c565b34801561042457600080fd5b506101d7610433366004612435565b6000918252600a602090815260408084206001600160a01b0393909316845291905290205460ff1690565b34801561046a57600080fd5b50610201610d90565b34801561047f57600080fd5b50610277600081565b34801561049457600080fd5b506101b56104a3366004612522565b610d9f565b3480156104b457600080fd5b506101b56104c3366004612574565b610daa565b3480156104d457600080fd5b506102016104e336600461239a565b610e28565b3480156104f457600080fd5b50610277610503366004612650565b610e9c565b34801561051457600080fd5b506101b5610523366004612435565b611037565b34801561053457600080fd5b506101d76105433660046126d3565b6001600160a01b03918216600090815260056020908152604080832093909416825291909152205460ff1690565b34801561057d57600080fd5b506102777f241ecf16d79d0f8dbfb92cbc07fe17840425976cf0667f022fe9877caa831b0881565b3480156105b157600080fd5b506105c56105c036600461239a565b61105c565b6040516101e39291906126fd565b3480156105df57600080fd5b506101b56105ee366004612716565b611101565b60006105fe82611152565b92915050565b60606000805461061390612738565b80601f016020809104026020016040519081016040528092919081815260200182805461063f90612738565b801561068c5780601f106106615761010080835404028352916020019161068c565b820191906000526020600020905b81548152906001019060200180831161066f57829003601f168201915b5050505050905090565b60006106a182611190565b506000908152600460205260409020546001600160a01b031690565b60006106c882610a82565b9050806001600160a01b0316836001600160a01b0316036107565760405162461bcd60e51b815260206004820152602160248201527f4552433732313a20617070726f76616c20746f2063757272656e74206f776e6560448201527f720000000000000000000000000000000000000000000000000000000000000060648201526084015b60405180910390fd5b336001600160a01b038216148061077257506107728133610543565b6107e45760405162461bcd60e51b815260206004820152603d60248201527f4552433732313a20617070726f76652063616c6c6572206973206e6f7420746f60448201527f6b656e206f776e6572206f7220617070726f76656420666f7220616c6c000000606482015260840161074d565b6107ee83836111f7565b505050565b6107fd3382611272565b61085f5760405162461bcd60e51b815260206004820152602d60248201527f4552433732313a2063616c6c6572206973206e6f7420746f6b656e206f776e6560448201526c1c881bdc88185c1c1c9bdd9959609a1b606482015260840161074d565b6107ee8383836112f1565b6000828152600a602052604090206001015461088581611504565b6107ee838361150e565b600061089a83610c92565b821061090e5760405162461bcd60e51b815260206004820152602b60248201527f455243373231456e756d657261626c653a206f776e657220696e646578206f7560448201527f74206f6620626f756e6473000000000000000000000000000000000000000000606482015260840161074d565b506001600160a01b03919091166000908152600660209081526040808320938352929052205490565b6001600160a01b03811633146109b55760405162461bcd60e51b815260206004820152602f60248201527f416363657373436f6e74726f6c3a2063616e206f6e6c792072656e6f756e636560448201527f20726f6c657320666f722073656c660000000000000000000000000000000000606482015260840161074d565b6109bf82826115b0565b5050565b6107ee83838360405180602001604052806000815250610daa565b60006109e960085490565b8210610a5d5760405162461bcd60e51b815260206004820152602c60248201527f455243373231456e756d657261626c653a20676c6f62616c20696e646578206f60448201527f7574206f6620626f756e64730000000000000000000000000000000000000000606482015260840161074d565b60088281548110610a7057610a70612772565b90600052602060002001549050919050565b6000818152600260205260408120546001600160a01b0316806105fe5760405162461bcd60e51b815260206004820152601860248201527f4552433732313a20696e76616c696420746f6b656e2049440000000000000000604482015260640161074d565b610b126040518060800160405280600081526020016060815260200160608152602001606081525090565b6001600160a01b0382166000908152600d60209081526040808320548352600c825291829020825160808101909352805483526001810180549192840191610b5990612738565b80601f0160208091040260200160405190810160405280929190818152602001828054610b8590612738565b8015610bd25780601f10610ba757610100808354040283529160200191610bd2565b820191906000526020600020905b815481529060010190602001808311610bb557829003601f168201915b5050505050815260200160028201805480602002602001604051908101604052809291908181526020018280548015610c2a57602002820191906000526020600020905b815481526020019060010190808311610c16575b5050505050815260200160038201805480602002602001604051908101604052809291908181526020018280548015610c8257602002820191906000526020600020905b815481526020019060010190808311610c6e575b5050505050815250509050919050565b60006001600160a01b038216610d105760405162461bcd60e51b815260206004820152602960248201527f4552433732313a2061646472657373207a65726f206973206e6f74206120766160448201527f6c6964206f776e65720000000000000000000000000000000000000000000000606482015260840161074d565b506001600160a01b031660009081526003602052604090205490565b7f241ecf16d79d0f8dbfb92cbc07fe17840425976cf0667f022fe9877caa831b08610d5681611504565b506001600160a01b039091166000908152600d60209081526040808320548352600c82528220600301805460018101825590835291200155565b60606001805461061390612738565b6109bf338383611633565b610db43383611272565b610e165760405162461bcd60e51b815260206004820152602d60248201527f4552433732313a2063616c6c6572206973206e6f7420746f6b656e206f776e6560448201526c1c881bdc88185c1c1c9bdd9959609a1b606482015260840161074d565b610e2284848484611701565b50505050565b6060610e3382611190565b6000610e4a60408051602081019091526000815290565b90506000815111610e6a5760405180602001604052806000815250610e95565b80610e748461177f565b604051602001610e85929190612788565b6040516020818303038152906040525b9392505050565b60007f241ecf16d79d0f8dbfb92cbc07fe17840425976cf0667f022fe9877caa831b08610ec881611504565b610ed185610c92565b15610f1e5760405162461bcd60e51b815260206004820152600e60248201527f414c5245414459204d494e544544000000000000000000000000000000000000604482015260640161074d565b600b8054906000610f2e836127cd565b91905055506040518060800160405280600b54815260200185858080601f016020809104026020016040519081016040528093929190818152602001838380828437600092018290525093855250506040805183815260208082018352808601919091528151848152808201835294820194909452600b548352600c84529091208351815591830151600183019150610fc79082612834565b5060408201518051610fe39160028401916020909101906122a4565b5060608201518051610fff9160038401916020909101906122a4565b5090505061100f85600b5461181f565b600b546001600160a01b0386166000908152600d602052604090208190559150509392505050565b6000828152600a602052604090206001015461105281611504565b6107ee83836115b0565b600c602052600090815260409020805460018201805491929161107e90612738565b80601f01602080910402602001604051908101604052809291908181526020018280546110aa90612738565b80156110f75780601f106110cc576101008083540402835291602001916110f7565b820191906000526020600020905b8154815290600101906020018083116110da57829003601f168201915b5050505050905082565b7f241ecf16d79d0f8dbfb92cbc07fe17840425976cf0667f022fe9877caa831b0861112b81611504565b506000918252600c6020908152604083206002018054600181018255908452922090910155565b60006001600160e01b031982167f7965db0b0000000000000000000000000000000000000000000000000000000014806105fe57506105fe82611839565b6000818152600260205260409020546001600160a01b03166111f45760405162461bcd60e51b815260206004820152601860248201527f4552433732313a20696e76616c696420746f6b656e2049440000000000000000604482015260640161074d565b50565b6000818152600460205260409020805473ffffffffffffffffffffffffffffffffffffffff19166001600160a01b038416908117909155819061123982610a82565b6001600160a01b03167f8c5be1e5ebec7d5bd14f71427d1e84f3dd0314c0f7b2291e5b200ac8c7c3b92560405160405180910390a45050565b60008061127e83610a82565b9050806001600160a01b0316846001600160a01b031614806112c557506001600160a01b0380821660009081526005602090815260408083209388168352929052205460ff165b806112e95750836001600160a01b03166112de84610696565b6001600160a01b0316145b949350505050565b826001600160a01b031661130482610a82565b6001600160a01b0316146113685760405162461bcd60e51b815260206004820152602560248201527f4552433732313a207472616e736665722066726f6d20696e636f72726563742060448201526437bbb732b960d91b606482015260840161074d565b6001600160a01b0382166113e35760405162461bcd60e51b8152602060048201526024808201527f4552433732313a207472616e7366657220746f20746865207a65726f2061646460448201527f7265737300000000000000000000000000000000000000000000000000000000606482015260840161074d565b6113f08383836001611877565b826001600160a01b031661140382610a82565b6001600160a01b0316146114675760405162461bcd60e51b815260206004820152602560248201527f4552433732313a207472616e736665722066726f6d20696e636f72726563742060448201526437bbb732b960d91b606482015260840161074d565b6000818152600460209081526040808320805473ffffffffffffffffffffffffffffffffffffffff199081169091556001600160a01b0387811680865260038552838620805460001901905590871680865283862080546001019055868652600290945282852080549092168417909155905184937fddf252ad1be2c89b69c2b068fc378daa952ba7f163c4a11628f55a4df523b3ef91a4505050565b6111f48133611883565b6000828152600a602090815260408083206001600160a01b038516845290915290205460ff166109bf576000828152600a602090815260408083206001600160a01b03851684529091529020805460ff1916600117905561156c3390565b6001600160a01b0316816001600160a01b0316837f2f8788117e7eff1d82e926ec794901d17c78024a50270940304540a733656f0d60405160405180910390a45050565b6000828152600a602090815260408083206001600160a01b038516845290915290205460ff16156109bf576000828152600a602090815260408083206001600160a01b0385168085529252808320805460ff1916905551339285917ff6391f5c32d9c69d2a47ea670b442974b53935d1edc7fd64eb21e047a839171b9190a45050565b816001600160a01b0316836001600160a01b0316036116945760405162461bcd60e51b815260206004820152601960248201527f4552433732313a20617070726f766520746f2063616c6c657200000000000000604482015260640161074d565b6001600160a01b03838116600081815260056020908152604080832094871680845294825291829020805460ff191686151590811790915591519182527f17307eab39ab6107e8899845ad3d59bd9653f200f220920489ca2b5937696c31910160405180910390a3505050565b61170c8484846112f1565b611718848484846118f8565b610e225760405162461bcd60e51b815260206004820152603260248201527f4552433732313a207472616e7366657220746f206e6f6e20455243373231526560448201527131b2b4bb32b91034b6b83632b6b2b73a32b960711b606482015260840161074d565b6060600061178c83611a44565b600101905060008167ffffffffffffffff8111156117ac576117ac61255e565b6040519080825280601f01601f1916602001820160405280156117d6576020820181803683370190505b5090508181016020015b600019017f3031323334353637383961626364656600000000000000000000000000000000600a86061a8153600a85049450846117e057509392505050565b6109bf828260405180602001604052806000815250611b26565b60006001600160e01b031982167f780e9d630000000000000000000000000000000000000000000000000000000014806105fe57506105fe82611ba4565b610e2284848484611c3f565b6000828152600a602090815260408083206001600160a01b038516845290915290205460ff166109bf576118b681611d7b565b6118c1836020611d8d565b6040516020016118d29291906128f4565b60408051601f198184030181529082905262461bcd60e51b825261074d91600401612387565b60006001600160a01b0384163b15611a3957604051630a85bd0160e11b81526001600160a01b0385169063150b7a029061193c903390899088908890600401612975565b6020604051808303816000875af1925050508015611977575060408051601f3d908101601f19168201909252611974918101906129b1565b60015b611a1f573d8080156119a5576040519150601f19603f3d011682016040523d82523d6000602084013e6119aa565b606091505b508051600003611a175760405162461bcd60e51b815260206004820152603260248201527f4552433732313a207472616e7366657220746f206e6f6e20455243373231526560448201527131b2b4bb32b91034b6b83632b6b2b73a32b960711b606482015260840161074d565b805181602001fd5b6001600160e01b031916630a85bd0160e11b1490506112e9565b506001949350505050565b6000807a184f03e93ff9f4daa797ed6e38ed64bf6a1f0100000000000000008310611a8d577a184f03e93ff9f4daa797ed6e38ed64bf6a1f010000000000000000830492506040015b6d04ee2d6d415b85acef81000000008310611ab9576d04ee2d6d415b85acef8100000000830492506020015b662386f26fc100008310611ad757662386f26fc10000830492506010015b6305f5e1008310611aef576305f5e100830492506008015b6127108310611b0357612710830492506004015b60648310611b15576064830492506002015b600a83106105fe5760010192915050565b611b308383611f6e565b611b3d60008484846118f8565b6107ee5760405162461bcd60e51b815260206004820152603260248201527f4552433732313a207472616e7366657220746f206e6f6e20455243373231526560448201527131b2b4bb32b91034b6b83632b6b2b73a32b960711b606482015260840161074d565b60006001600160e01b031982167f80ac58cd000000000000000000000000000000000000000000000000000000001480611c0757506001600160e01b031982167f5b5e139f00000000000000000000000000000000000000000000000000000000145b806105fe57507f01ffc9a7000000000000000000000000000000000000000000000000000000006001600160e01b03198316146105fe565b6001811115611cb65760405162461bcd60e51b815260206004820152603560248201527f455243373231456e756d657261626c653a20636f6e736563757469766520747260448201527f616e7366657273206e6f7420737570706f727465640000000000000000000000606482015260840161074d565b816001600160a01b038516611d1257611d0d81600880546000838152600960205260408120829055600182018355919091527ff3f7a9fe364faab93b216da50a3214154f22a0a2b415b23a84c8169e8b636ee30155565b611d35565b836001600160a01b0316856001600160a01b031614611d3557611d358582612114565b6001600160a01b038416611d5157611d4c816121b1565b611d74565b846001600160a01b0316846001600160a01b031614611d7457611d748482612260565b5050505050565b60606105fe6001600160a01b03831660145b60606000611d9c8360026129ce565b611da79060026129e5565b67ffffffffffffffff811115611dbf57611dbf61255e565b6040519080825280601f01601f191660200182016040528015611de9576020820181803683370190505b5090507f300000000000000000000000000000000000000000000000000000000000000081600081518110611e2057611e20612772565b60200101906001600160f81b031916908160001a9053507f780000000000000000000000000000000000000000000000000000000000000081600181518110611e6b57611e6b612772565b60200101906001600160f81b031916908160001a9053506000611e8f8460026129ce565b611e9a9060016129e5565b90505b6001811115611f1f577f303132333435363738396162636465660000000000000000000000000000000085600f1660108110611edb57611edb612772565b1a60f81b828281518110611ef157611ef1612772565b60200101906001600160f81b031916908160001a90535060049490941c93611f18816129f8565b9050611e9d565b508315610e955760405162461bcd60e51b815260206004820181905260248201527f537472696e67733a20686578206c656e67746820696e73756666696369656e74604482015260640161074d565b6001600160a01b038216611fc45760405162461bcd60e51b815260206004820181905260248201527f4552433732313a206d696e7420746f20746865207a65726f2061646472657373604482015260640161074d565b6000818152600260205260409020546001600160a01b0316156120295760405162461bcd60e51b815260206004820152601c60248201527f4552433732313a20746f6b656e20616c7265616479206d696e74656400000000604482015260640161074d565b612037600083836001611877565b6000818152600260205260409020546001600160a01b03161561209c5760405162461bcd60e51b815260206004820152601c60248201527f4552433732313a20746f6b656e20616c7265616479206d696e74656400000000604482015260640161074d565b6001600160a01b0382166000818152600360209081526040808320805460010190558483526002909152808220805473ffffffffffffffffffffffffffffffffffffffff19168417905551839291907fddf252ad1be2c89b69c2b068fc378daa952ba7f163c4a11628f55a4df523b3ef908290a45050565b6000600161212184610c92565b61212b9190612a0f565b60008381526007602052604090205490915080821461217e576001600160a01b03841660009081526006602090815260408083208584528252808320548484528184208190558352600790915290208190555b5060009182526007602090815260408084208490556001600160a01b039094168352600681528383209183525290812055565b6008546000906121c390600190612a0f565b600083815260096020526040812054600880549394509092849081106121eb576121eb612772565b90600052602060002001549050806008838154811061220c5761220c612772565b600091825260208083209091019290925582815260099091526040808220849055858252812055600880548061224457612244612a22565b6001900381819060005260206000200160009055905550505050565b600061226b83610c92565b6001600160a01b039093166000908152600660209081526040808320868452825280832085905593825260079052919091209190915550565b8280548282559060005260206000209081019282156122df579160200282015b828111156122df5782518255916020019190600101906122c4565b506122eb9291506122ef565b5090565b5b808211156122eb57600081556001016122f0565b6001600160e01b0319811681146111f457600080fd5b60006020828403121561232c57600080fd5b8135610e9581612304565b60005b8381101561235257818101518382015260200161233a565b50506000910152565b60008151808452612373816020860160208601612337565b601f01601f19169290920160200192915050565b602081526000610e95602083018461235b565b6000602082840312156123ac57600080fd5b5035919050565b80356001600160a01b03811681146123ca57600080fd5b919050565b600080604083850312156123e257600080fd5b6123eb836123b3565b946020939093013593505050565b60008060006060848603121561240e57600080fd5b612417846123b3565b9250612425602085016123b3565b9150604084013590509250925092565b6000806040838503121561244857600080fd5b82359150612458602084016123b3565b90509250929050565b60006020828403121561247357600080fd5b610e95826123b3565b600081518084526020808501945080840160005b838110156124ac57815187529582019590820190600101612490565b509495945050505050565b602081528151602082015260006020830151608060408401526124dd60a084018261235b565b90506040840151601f19808584030160608601526124fb838361247c565b9250606086015191508085840301608086015250612519828261247c565b95945050505050565b6000806040838503121561253557600080fd5b61253e836123b3565b91506020830135801515811461255357600080fd5b809150509250929050565b634e487b7160e01b600052604160045260246000fd5b6000806000806080858703121561258a57600080fd5b612593856123b3565b93506125a1602086016123b3565b925060408501359150606085013567ffffffffffffffff808211156125c557600080fd5b818701915087601f8301126125d957600080fd5b8135818111156125eb576125eb61255e565b604051601f8201601f19908116603f011681019083821181831017156126135761261361255e565b816040528281528a602084870101111561262c57600080fd5b82602086016020830137600060208483010152809550505050505092959194509250565b60008060006040848603121561266557600080fd5b61266e846123b3565b9250602084013567ffffffffffffffff8082111561268b57600080fd5b818601915086601f83011261269f57600080fd5b8135818111156126ae57600080fd5b8760208285010111156126c057600080fd5b6020830194508093505050509250925092565b600080604083850312156126e657600080fd5b6126ef836123b3565b9150612458602084016123b3565b8281526040602082015260006112e9604083018461235b565b6000806040838503121561272957600080fd5b50508035926020909101359150565b600181811c9082168061274c57607f821691505b60208210810361276c57634e487b7160e01b600052602260045260246000fd5b50919050565b634e487b7160e01b600052603260045260246000fd5b6000835161279a818460208801612337565b8351908301906127ae818360208801612337565b01949350505050565b634e487b7160e01b600052601160045260246000fd5b6000600182016127df576127df6127b7565b5060010190565b601f8211156107ee57600081815260208120601f850160051c8101602086101561280d5750805b601f850160051c820191505b8181101561282c57828155600101612819565b505050505050565b815167ffffffffffffffff81111561284e5761284e61255e565b6128628161285c8454612738565b846127e6565b602080601f831160018114612897576000841561287f5750858301515b600019600386901b1c1916600185901b17855561282c565b600085815260208120601f198616915b828110156128c6578886015182559484019460019091019084016128a7565b50858210156128e45787850151600019600388901b60f8161c191681555b5050505050600190811b01905550565b7f416363657373436f6e74726f6c3a206163636f756e742000000000000000000081526000835161292c816017850160208801612337565b7f206973206d697373696e6720726f6c65200000000000000000000000000000006017918401918201528351612969816028840160208801612337565b01602801949350505050565b60006001600160a01b038087168352808616602084015250836040830152608060608301526129a7608083018461235b565b9695505050505050565b6000602082840312156129c357600080fd5b8151610e9581612304565b80820281158282048414176105fe576105fe6127b7565b808201808211156105fe576105fe6127b7565b600081612a0757612a076127b7565b506000190190565b818103818111156105fe576105fe6127b7565b634e487b7160e01b600052603160045260246000fdfea2646970667358221220b07b4255f6c9d957d792bd4c05e9c9b7d0d62e04f7564fd9bae765393993f0ad64736f6c63430008120033",
  "devdoc": {
    "events": {
      "Approval(address,address,uint256)": {
        "details": "Emitted when `owner` enables `approved` to manage the `tokenId` token."
      },
      "ApprovalForAll(address,address,bool)": {
        "details": "Emitted when `owner` enables or disables (`approved`) `operator` to manage all of its assets."
      },
      "RoleAdminChanged(bytes32,bytes32,bytes32)": {
        "details": "Emitted when `newAdminRole` is set as ``role``'s admin role, replacing `previousAdminRole` `DEFAULT_ADMIN_ROLE` is the starting admin for all roles, despite {RoleAdminChanged} not being emitted signaling this. _Available since v3.1._"
      },
      "RoleGranted(bytes32,address,address)": {
        "details": "Emitted when `account` is granted `role`. `sender` is the account that originated the contract call, an admin role bearer except when using {AccessControl-_setupRole}."
      },
      "RoleRevoked(bytes32,address,address)": {
        "details": "Emitted when `account` is revoked `role`. `sender` is the account that originated the contract call:   - if using `revokeRole`, it is the admin role bearer   - if using `renounceRole`, it is the role bearer (i.e. `account`)"
      },
      "Transfer(address,address,uint256)": {
        "details": "Emitted when `tokenId` token is transferred from `from` to `to`."
      }
    },
    "kind": "dev",
    "methods": {
      "approve(address,uint256)": {
        "details": "See {IERC721-approve}."
      },
      "balanceOf(address)": {
        "details": "See {IERC721-balanceOf}."
      },
      "getApproved(uint256)": {
        "details": "See {IERC721-getApproved}."
      },
      "getRoleAdmin(bytes32)": {
        "details": "Returns the admin role that controls `role`. See {grantRole} and {revokeRole}. To change a role's admin, use {_setRoleAdmin}."
      },
      "grantRole(bytes32,address)": {
        "details": "Grants `role` to `account`. If `account` had not been already granted `role`, emits a {RoleGranted} event. Requirements: - the caller must have ``role``'s admin role. May emit a {RoleGranted} event."
      },
      "hasRole(bytes32,address)": {
        "details": "Returns `true` if `account` has been granted `role`."
      },
      "isApprovedForAll(address,address)": {
        "details": "See {IERC721-isApprovedForAll}."
      },
      "name()": {
        "details": "See {IERC721Metadata-name}."
      },
      "ownerOf(uint256)": {
        "details": "See {IERC721-ownerOf}."
      },
      "renounceRole(bytes32,address)": {
        "details": "Revokes `role` from the calling account. Roles are often managed via {grantRole} and {revokeRole}: this function's purpose is to provide a mechanism for accounts to lose their privileges if they are compromised (such as when a trusted device is misplaced). If the calling account had been revoked `role`, emits a {RoleRevoked} event. Requirements: - the caller must be `account`. May emit a {RoleRevoked} event."
      },
      "revokeRole(bytes32,address)": {
        "details": "Revokes `role` from `account`. If `account` had been granted `role`, emits a {RoleRevoked} event. Requirements: - the caller must have ``role``'s admin role. May emit a {RoleRevoked} event."
      },
      "safeTransferFrom(address,address,uint256)": {
        "details": "See {IERC721-safeTransferFrom}."
      },
      "safeTransferFrom(address,address,uint256,bytes)": {
        "details": "See {IERC721-safeTransferFrom}."
      },
      "setApprovalForAll(address,bool)": {
        "details": "See {IERC721-setApprovalForAll}."
      },
      "symbol()": {
        "details": "See {IERC721Metadata-symbol}."
      },
      "tokenByIndex(uint256)": {
        "details": "See {IERC721Enumerable-tokenByIndex}."
      },
      "tokenOfOwnerByIndex(address,uint256)": {
        "details": "See {IERC721Enumerable-tokenOfOwnerByIndex}."
      },
      "tokenURI(uint256)": {
        "details": "See {IERC721Metadata-tokenURI}."
      },
      "totalSupply()": {
        "details": "See {IERC721Enumerable-totalSupply}."
      },
      "transferFrom(address,address,uint256)": {
        "details": "See {IERC721-transferFrom}."
      }
    },
    "version": 1
  },
  "userdoc": {
    "kind": "user",
    "methods": {
      "addAdminVibe(address,uint256)": {
        "notice": "Adds vibe to users admin"
      },
      "getViberForAddress(address)": {
        "notice": "Returns a specific viber for address"
      },
      "joinVibe(uint256,uint256)": {
        "notice": "Joins a vibe"
      }
    },
    "version": 1
  },
  "storageLayout": {
    "storage": [
      {
        "astId": 546,
        "contract": "contracts/Viber.sol:Viber",
        "label": "_name",
        "offset": 0,
        "slot": "0",
        "type": "t_string_storage"
      },
      {
        "astId": 548,
        "contract": "contracts/Viber.sol:Viber",
        "label": "_symbol",
        "offset": 0,
        "slot": "1",
        "type": "t_string_storage"
      },
      {
        "astId": 552,
        "contract": "contracts/Viber.sol:Viber",
        "label": "_owners",
        "offset": 0,
        "slot": "2",
        "type": "t_mapping(t_uint256,t_address)"
      },
      {
        "astId": 556,
        "contract": "contracts/Viber.sol:Viber",
        "label": "_balances",
        "offset": 0,
        "slot": "3",
        "type": "t_mapping(t_address,t_uint256)"
      },
      {
        "astId": 560,
        "contract": "contracts/Viber.sol:Viber",
        "label": "_tokenApprovals",
        "offset": 0,
        "slot": "4",
        "type": "t_mapping(t_uint256,t_address)"
      },
      {
        "astId": 566,
        "contract": "contracts/Viber.sol:Viber",
        "label": "_operatorApprovals",
        "offset": 0,
        "slot": "5",
        "type": "t_mapping(t_address,t_mapping(t_address,t_bool))"
      },
      {
        "astId": 1596,
        "contract": "contracts/Viber.sol:Viber",
        "label": "_ownedTokens",
        "offset": 0,
        "slot": "6",
        "type": "t_mapping(t_address,t_mapping(t_uint256,t_uint256))"
      },
      {
        "astId": 1600,
        "contract": "contracts/Viber.sol:Viber",
        "label": "_ownedTokensIndex",
        "offset": 0,
        "slot": "7",
        "type": "t_mapping(t_uint256,t_uint256)"
      },
      {
        "astId": 1603,
        "contract": "contracts/Viber.sol:Viber",
        "label": "_allTokens",
        "offset": 0,
        "slot": "8",
        "type": "t_array(t_uint256)dyn_storage"
      },
      {
        "astId": 1607,
        "contract": "contracts/Viber.sol:Viber",
        "label": "_allTokensIndex",
        "offset": 0,
        "slot": "9",
        "type": "t_mapping(t_uint256,t_uint256)"
      },
      {
        "astId": 24,
        "contract": "contracts/Viber.sol:Viber",
        "label": "_roles",
        "offset": 0,
        "slot": "10",
        "type": "t_mapping(t_bytes32,t_struct(RoleData)19_storage)"
      },
      {
        "astId": 4389,
        "contract": "contracts/Viber.sol:Viber",
        "label": "tokensMinted",
        "offset": 0,
        "slot": "11",
        "type": "t_uint256"
      },
      {
        "astId": 4394,
        "contract": "contracts/Viber.sol:Viber",
        "label": "vibers",
        "offset": 0,
        "slot": "12",
        "type": "t_mapping(t_uint256,t_struct(ViberStats)3621_storage)"
      },
      {
        "astId": 4398,
        "contract": "contracts/Viber.sol:Viber",
        "label": "addressToId",
        "offset": 0,
        "slot": "13",
        "type": "t_mapping(t_address,t_uint256)"
      }
    ],
    "types": {
      "t_address": {
        "encoding": "inplace",
        "label": "address",
        "numberOfBytes": "20"
      },
      "t_array(t_uint256)dyn_storage": {
        "base": "t_uint256",
        "encoding": "dynamic_array",
        "label": "uint256[]",
        "numberOfBytes": "32"
      },
      "t_bool": {
        "encoding": "inplace",
        "label": "bool",
        "numberOfBytes": "1"
      },
      "t_bytes32": {
        "encoding": "inplace",
        "label": "bytes32",
        "numberOfBytes": "32"
      },
      "t_mapping(t_address,t_bool)": {
        "encoding": "mapping",
        "key": "t_address",
        "label": "mapping(address => bool)",
        "numberOfBytes": "32",
        "value": "t_bool"
      },
      "t_mapping(t_address,t_mapping(t_address,t_bool))": {
        "encoding": "mapping",
        "key": "t_address",
        "label": "mapping(address => mapping(address => bool))",
        "numberOfBytes": "32",
        "value": "t_mapping(t_address,t_bool)"
      },
      "t_mapping(t_address,t_mapping(t_uint256,t_uint256))": {
        "encoding": "mapping",
        "key": "t_address",
        "label": "mapping(address => mapping(uint256 => uint256))",
        "numberOfBytes": "32",
        "value": "t_mapping(t_uint256,t_uint256)"
      },
      "t_mapping(t_address,t_uint256)": {
        "encoding": "mapping",
        "key": "t_address",
        "label": "mapping(address => uint256)",
        "numberOfBytes": "32",
        "value": "t_uint256"
      },
      "t_mapping(t_bytes32,t_struct(RoleData)19_storage)": {
        "encoding": "mapping",
        "key": "t_bytes32",
        "label": "mapping(bytes32 => struct AccessControl.RoleData)",
        "numberOfBytes": "32",
        "value": "t_struct(RoleData)19_storage"
      },
      "t_mapping(t_uint256,t_address)": {
        "encoding": "mapping",
        "key": "t_uint256",
        "label": "mapping(uint256 => address)",
        "numberOfBytes": "32",
        "value": "t_address"
      },
      "t_mapping(t_uint256,t_struct(ViberStats)3621_storage)": {
        "encoding": "mapping",
        "key": "t_uint256",
        "label": "mapping(uint256 => struct ViberStats)",
        "numberOfBytes": "32",
        "value": "t_struct(ViberStats)3621_storage"
      },
      "t_mapping(t_uint256,t_uint256)": {
        "encoding": "mapping",
        "key": "t_uint256",
        "label": "mapping(uint256 => uint256)",
        "numberOfBytes": "32",
        "value": "t_uint256"
      },
      "t_string_storage": {
        "encoding": "bytes",
        "label": "string",
        "numberOfBytes": "32"
      },
      "t_struct(RoleData)19_storage": {
        "encoding": "inplace",
        "label": "struct AccessControl.RoleData",
        "members": [
          {
            "astId": 16,
            "contract": "contracts/Viber.sol:Viber",
            "label": "members",
            "offset": 0,
            "slot": "0",
            "type": "t_mapping(t_address,t_bool)"
          },
          {
            "astId": 18,
            "contract": "contracts/Viber.sol:Viber",
            "label": "adminRole",
            "offset": 0,
            "slot": "1",
            "type": "t_bytes32"
          }
        ],
        "numberOfBytes": "64"
      },
      "t_struct(ViberStats)3621_storage": {
        "encoding": "inplace",
        "label": "struct ViberStats",
        "members": [
          {
            "astId": 3612,
            "contract": "contracts/Viber.sol:Viber",
            "label": "id",
            "offset": 0,
            "slot": "0",
            "type": "t_uint256"
          },
          {
            "astId": 3614,
            "contract": "contracts/Viber.sol:Viber",
            "label": "name",
            "offset": 0,
            "slot": "1",
            "type": "t_string_storage"
          },
          {
            "astId": 3617,
            "contract": "contracts/Viber.sol:Viber",
            "label": "vibes",
            "offset": 0,
            "slot": "2",
            "type": "t_array(t_uint256)dyn_storage"
          },
          {
            "astId": 3620,
            "contract": "contracts/Viber.sol:Viber",
            "label": "adminVibes",
            "offset": 0,
            "slot": "3",
            "type": "t_array(t_uint256)dyn_storage"
          }
        ],
        "numberOfBytes": "128"
      },
      "t_uint256": {
        "encoding": "inplace",
        "label": "uint256",
        "numberOfBytes": "32"
      }
    }
  }
}