{
  "address": "0xA22D51c47bcc8A58FbA141672ee05e0764C8E64e",
  "abi": [
    {
      "inputs": [
        {
          "internalType": "address",
          "name": "_vibe",
          "type": "address"
        },
        {
          "internalType": "address",
          "name": "_viber",
          "type": "address"
        }
      ],
      "stateMutability": "nonpayable",
      "type": "constructor"
    },
    {
      "anonymous": false,
      "inputs": [
        {
          "indexed": true,
          "internalType": "bytes32",
          "name": "role",
          "type": "bytes32"
        },
        {
          "indexed": true,
          "internalType": "bytes32",
          "name": "previousAdminRole",
          "type": "bytes32"
        },
        {
          "indexed": true,
          "internalType": "bytes32",
          "name": "newAdminRole",
          "type": "bytes32"
        }
      ],
      "name": "RoleAdminChanged",
      "type": "event"
    },
    {
      "anonymous": false,
      "inputs": [
        {
          "indexed": true,
          "internalType": "bytes32",
          "name": "role",
          "type": "bytes32"
        },
        {
          "indexed": true,
          "internalType": "address",
          "name": "account",
          "type": "address"
        },
        {
          "indexed": true,
          "internalType": "address",
          "name": "sender",
          "type": "address"
        }
      ],
      "name": "RoleGranted",
      "type": "event"
    },
    {
      "anonymous": false,
      "inputs": [
        {
          "indexed": true,
          "internalType": "bytes32",
          "name": "role",
          "type": "bytes32"
        },
        {
          "indexed": true,
          "internalType": "address",
          "name": "account",
          "type": "address"
        },
        {
          "indexed": true,
          "internalType": "address",
          "name": "sender",
          "type": "address"
        }
      ],
      "name": "RoleRevoked",
      "type": "event"
    },
    {
      "stateMutability": "payable",
      "type": "fallback"
    },
    {
      "inputs": [],
      "name": "DEFAULT_ADMIN_ROLE",
      "outputs": [
        {
          "internalType": "bytes32",
          "name": "",
          "type": "bytes32"
        }
      ],
      "stateMutability": "view",
      "type": "function"
    },
    {
      "inputs": [
        {
          "internalType": "string",
          "name": "_name",
          "type": "string"
        },
        {
          "internalType": "string",
          "name": "_shortName",
          "type": "string"
        },
        {
          "internalType": "string",
          "name": "_imageUrl",
          "type": "string"
        },
        {
          "internalType": "uint256",
          "name": "_startDate",
          "type": "uint256"
        },
        {
          "internalType": "uint256",
          "name": "_endDate",
          "type": "uint256"
        },
        {
          "internalType": "string",
          "name": "_eventType",
          "type": "string"
        }
      ],
      "name": "createVibe",
      "outputs": [
        {
          "internalType": "uint256",
          "name": "vibeId",
          "type": "uint256"
        }
      ],
      "stateMutability": "nonpayable",
      "type": "function"
    },
    {
      "inputs": [
        {
          "internalType": "bytes32",
          "name": "role",
          "type": "bytes32"
        }
      ],
      "name": "getRoleAdmin",
      "outputs": [
        {
          "internalType": "bytes32",
          "name": "",
          "type": "bytes32"
        }
      ],
      "stateMutability": "view",
      "type": "function"
    },
    {
      "inputs": [
        {
          "internalType": "uint256",
          "name": "_vibeId",
          "type": "uint256"
        }
      ],
      "name": "getVibeAndVibees",
      "outputs": [
        {
          "components": [
            {
              "internalType": "uint256",
              "name": "id",
              "type": "uint256"
            },
            {
              "internalType": "string",
              "name": "name",
              "type": "string"
            },
            {
              "internalType": "string",
              "name": "shortName",
              "type": "string"
            },
            {
              "internalType": "string",
              "name": "imageUrl",
              "type": "string"
            },
            {
              "internalType": "uint256",
              "name": "startDate",
              "type": "uint256"
            },
            {
              "internalType": "uint256",
              "name": "endDate",
              "type": "uint256"
            },
            {
              "internalType": "string",
              "name": "eventType",
              "type": "string"
            },
            {
              "internalType": "address[]",
              "name": "admins",
              "type": "address[]"
            },
            {
              "internalType": "uint256[]",
              "name": "participantIds",
              "type": "uint256[]"
            },
            {
              "internalType": "bool",
              "name": "live",
              "type": "bool"
            }
          ],
          "internalType": "struct VibeStats",
          "name": "vibe",
          "type": "tuple"
        },
        {
          "components": [
            {
              "internalType": "uint256",
              "name": "vibe",
              "type": "uint256"
            },
            {
              "internalType": "uint256",
              "name": "viber",
              "type": "uint256"
            },
            {
              "internalType": "bool",
              "name": "exists",
              "type": "bool"
            },
            {
              "internalType": "uint256",
              "name": "achievements",
              "type": "uint256"
            },
            {
              "internalType": "string",
              "name": "status",
              "type": "string"
            }
          ],
          "internalType": "struct VibeeStats[]",
          "name": "vibees",
          "type": "tuple[]"
        }
      ],
      "stateMutability": "nonpayable",
      "type": "function"
    },
    {
      "inputs": [
        {
          "internalType": "address",
          "name": "_address",
          "type": "address"
        }
      ],
      "name": "getViberAndVibes",
      "outputs": [
        {
          "components": [
            {
              "internalType": "uint256",
              "name": "id",
              "type": "uint256"
            },
            {
              "internalType": "string",
              "name": "name",
              "type": "string"
            },
            {
              "internalType": "uint256[]",
              "name": "vibes",
              "type": "uint256[]"
            },
            {
              "internalType": "uint256[]",
              "name": "adminVibes",
              "type": "uint256[]"
            }
          ],
          "internalType": "struct ViberStats",
          "name": "viber",
          "type": "tuple"
        },
        {
          "components": [
            {
              "internalType": "uint256",
              "name": "id",
              "type": "uint256"
            },
            {
              "internalType": "string",
              "name": "name",
              "type": "string"
            },
            {
              "internalType": "string",
              "name": "shortName",
              "type": "string"
            },
            {
              "internalType": "string",
              "name": "imageUrl",
              "type": "string"
            },
            {
              "internalType": "uint256",
              "name": "startDate",
              "type": "uint256"
            },
            {
              "internalType": "uint256",
              "name": "endDate",
              "type": "uint256"
            },
            {
              "internalType": "string",
              "name": "eventType",
              "type": "string"
            },
            {
              "internalType": "address[]",
              "name": "admins",
              "type": "address[]"
            },
            {
              "internalType": "uint256[]",
              "name": "participantIds",
              "type": "uint256[]"
            },
            {
              "internalType": "bool",
              "name": "live",
              "type": "bool"
            }
          ],
          "internalType": "struct VibeStats[]",
          "name": "vibes",
          "type": "tuple[]"
        },
        {
          "components": [
            {
              "internalType": "uint256",
              "name": "id",
              "type": "uint256"
            },
            {
              "internalType": "string",
              "name": "name",
              "type": "string"
            },
            {
              "internalType": "string",
              "name": "shortName",
              "type": "string"
            },
            {
              "internalType": "string",
              "name": "imageUrl",
              "type": "string"
            },
            {
              "internalType": "uint256",
              "name": "startDate",
              "type": "uint256"
            },
            {
              "internalType": "uint256",
              "name": "endDate",
              "type": "uint256"
            },
            {
              "internalType": "string",
              "name": "eventType",
              "type": "string"
            },
            {
              "internalType": "address[]",
              "name": "admins",
              "type": "address[]"
            },
            {
              "internalType": "uint256[]",
              "name": "participantIds",
              "type": "uint256[]"
            },
            {
              "internalType": "bool",
              "name": "live",
              "type": "bool"
            }
          ],
          "internalType": "struct VibeStats[]",
          "name": "adminVibes",
          "type": "tuple[]"
        }
      ],
      "stateMutability": "view",
      "type": "function"
    },
    {
      "inputs": [
        {
          "internalType": "bytes32",
          "name": "role",
          "type": "bytes32"
        },
        {
          "internalType": "address",
          "name": "account",
          "type": "address"
        }
      ],
      "name": "grantRole",
      "outputs": [],
      "stateMutability": "nonpayable",
      "type": "function"
    },
    {
      "inputs": [
        {
          "internalType": "bytes32",
          "name": "role",
          "type": "bytes32"
        },
        {
          "internalType": "address",
          "name": "account",
          "type": "address"
        }
      ],
      "name": "hasRole",
      "outputs": [
        {
          "internalType": "bool",
          "name": "",
          "type": "bool"
        }
      ],
      "stateMutability": "view",
      "type": "function"
    },
    {
      "inputs": [
        {
          "internalType": "uint256",
          "name": "_viberId",
          "type": "uint256"
        },
        {
          "internalType": "uint256",
          "name": "_vibeId",
          "type": "uint256"
        }
      ],
      "name": "joinVibe",
      "outputs": [],
      "stateMutability": "nonpayable",
      "type": "function"
    },
    {
      "inputs": [
        {
          "internalType": "uint256",
          "name": "_vibeId",
          "type": "uint256"
        },
        {
          "internalType": "uint256",
          "name": "_viberId",
          "type": "uint256"
        }
      ],
      "name": "leaveVibe",
      "outputs": [],
      "stateMutability": "nonpayable",
      "type": "function"
    },
    {
      "inputs": [
        {
          "internalType": "string",
          "name": "_name",
          "type": "string"
        }
      ],
      "name": "mintViber",
      "outputs": [
        {
          "internalType": "uint256",
          "name": "viberId",
          "type": "uint256"
        }
      ],
      "stateMutability": "nonpayable",
      "type": "function"
    },
    {
      "inputs": [
        {
          "internalType": "bytes32",
          "name": "role",
          "type": "bytes32"
        },
        {
          "internalType": "address",
          "name": "account",
          "type": "address"
        }
      ],
      "name": "renounceRole",
      "outputs": [],
      "stateMutability": "nonpayable",
      "type": "function"
    },
    {
      "inputs": [
        {
          "internalType": "bytes32",
          "name": "role",
          "type": "bytes32"
        },
        {
          "internalType": "address",
          "name": "account",
          "type": "address"
        }
      ],
      "name": "revokeRole",
      "outputs": [],
      "stateMutability": "nonpayable",
      "type": "function"
    },
    {
      "inputs": [
        {
          "internalType": "bytes4",
          "name": "interfaceId",
          "type": "bytes4"
        }
      ],
      "name": "supportsInterface",
      "outputs": [
        {
          "internalType": "bool",
          "name": "",
          "type": "bool"
        }
      ],
      "stateMutability": "view",
      "type": "function"
    },
    {
      "inputs": [
        {
          "internalType": "uint256",
          "name": "_vibeId",
          "type": "uint256"
        },
        {
          "internalType": "string",
          "name": "_name",
          "type": "string"
        },
        {
          "internalType": "string",
          "name": "_shortName",
          "type": "string"
        },
        {
          "internalType": "string",
          "name": "_imageUrl",
          "type": "string"
        },
        {
          "internalType": "uint256",
          "name": "_startDate",
          "type": "uint256"
        },
        {
          "internalType": "uint256",
          "name": "_endDate",
          "type": "uint256"
        },
        {
          "internalType": "string",
          "name": "_eventType",
          "type": "string"
        }
      ],
      "name": "updateVibe",
      "outputs": [],
      "stateMutability": "nonpayable",
      "type": "function"
    },
    {
      "inputs": [],
      "name": "vibeContract",
      "outputs": [
        {
          "internalType": "contract IVibe",
          "name": "",
          "type": "address"
        }
      ],
      "stateMutability": "view",
      "type": "function"
    },
    {
      "inputs": [],
      "name": "viberContract",
      "outputs": [
        {
          "internalType": "contract IViber",
          "name": "",
          "type": "address"
        }
      ],
      "stateMutability": "view",
      "type": "function"
    },
    {
      "inputs": [
        {
          "internalType": "uint256",
          "name": "_voterId",
          "type": "uint256"
        },
        {
          "internalType": "uint256",
          "name": "_voteeId",
          "type": "uint256"
        }
      ],
      "name": "voteVibe",
      "outputs": [],
      "stateMutability": "nonpayable",
      "type": "function"
    },
    {
      "stateMutability": "payable",
      "type": "receive"
    }
  ],
  "transactionHash": "0x5c1d8f3e5f77c709bdeb77343cca74157af70eede2aea21c9ab2013667e791ae",
  "args": [
    "0x0Fb126e2d802B2734367048eE28867eb7E47A4FA",
    "0x55d0A0187C0aAb8C6d079AEce260a3d3cA39F4a9"
  ],
  "numDeployments": 1,
  "solcInputHash": "6a28de177817645285e6d7747aa2d1a2",
  "bytecode": "0x60806040523480156200001157600080fd5b5060405162001f3938038062001f39833981016040819052620000349162000135565b600180556200004560003362000077565b600280546001600160a01b039384166001600160a01b031991821617909155600380549290931691161790556200016d565b6000828152602081815260408083206001600160a01b038516845290915290205460ff1662000114576000828152602081815260408083206001600160a01b03851684529091529020805460ff19166001179055620000d33390565b6001600160a01b0316816001600160a01b0316837f2f8788117e7eff1d82e926ec794901d17c78024a50270940304540a733656f0d60405160405180910390a45b5050565b80516001600160a01b03811681146200013057600080fd5b919050565b600080604083850312156200014957600080fd5b620001548362000118565b9150620001646020840162000118565b90509250929050565b611dbc806200017d6000396000f3fe6080604052600436106101035760003560e01c806391d148541161009c578063d547741f1161006e578063e0ef8b8c11610056578063e0ef8b8c14610141578063f88904661461034c578063fcc6aa521461036c57005b8063d547741f1461030c578063dafe09ca1461032c57005b806391d1485414610264578063a217fddf146102a8578063a4cf7dee146102bd578063c707cd15146102ec57005b80632f2ff15d116100d55780632f2ff15d146101cc57806336568abe146101ec578063386f738b1461020c57806356c21d431461022c57005b806301ffc9a71461010c5780630e56e44f14610141578063149d6c3414610160578063248a9ca31461018e57005b3661010a57005b005b34801561011857600080fd5b5061012c610127366004610e89565b61038c565b60405190151581526020015b60405180910390f35b34801561014d57600080fd5b5061010a61015c366004610ecb565b5050565b34801561016c57600080fd5b5061018061017b366004610eed565b610425565b6040516101389291906110a3565b34801561019a57600080fd5b506101be6101a9366004610eed565b60009081526020819052604090206001015490565b604051908152602001610138565b3480156101d857600080fd5b5061010a6101e736600461115f565b610514565b3480156101f857600080fd5b5061010a61020736600461115f565b61053e565b34801561021857600080fd5b5061010a6102273660046112c4565b6105cb565b34801561023857600080fd5b5060035461024c906001600160a01b031681565b6040516001600160a01b039091168152602001610138565b34801561027057600080fd5b5061012c61027f36600461115f565b6000918252602082815260408084206001600160a01b0393909316845291905290205460ff1690565b3480156102b457600080fd5b506101be600081565b3480156102c957600080fd5b506102dd6102d836600461138e565b61065d565b60405161013893929190611400565b3480156102f857600080fd5b5060025461024c906001600160a01b031681565b34801561031857600080fd5b5061010a61032736600461115f565b610815565b34801561033857600080fd5b506101be610347366004611494565b61083a565b34801561035857600080fd5b506101be610367366004611553565b61095b565b34801561037857600080fd5b5061010a610387366004610ecb565b6109f3565b60007fffffffff0000000000000000000000000000000000000000000000000000000082167f7965db0b00000000000000000000000000000000000000000000000000000000148061041f57507f01ffc9a7000000000000000000000000000000000000000000000000000000007fffffffff000000000000000000000000000000000000000000000000000000008316145b92915050565b61047d6040518061014001604052806000815260200160608152602001606081526020016060815260200160008152602001600081526020016060815260200160608152602001606081526020016000151581525090565b6002546040517f149d6c34000000000000000000000000000000000000000000000000000000008152600481018490526060916001600160a01b03169063149d6c34906024016000604051808303816000875af11580156104e2573d6000803e3d6000fd5b505050506040513d6000823e601f3d908101601f1916820160405261050a919081019061184b565b9094909350915050565b60008281526020819052604090206001015461052f81610af9565b6105398383610b06565b505050565b6001600160a01b03811633146105c15760405162461bcd60e51b815260206004820152602f60248201527f416363657373436f6e74726f6c3a2063616e206f6e6c792072656e6f756e636560448201527f20726f6c657320666f722073656c66000000000000000000000000000000000060648201526084015b60405180910390fd5b61015c8282610ba4565b6002546040517f2baaa1c20000000000000000000000000000000000000000000000000000000081526001600160a01b0390911690632baaa1c2906106229033908b908b908b908b908b908b908b90600401611983565b600060405180830381600087803b15801561063c57600080fd5b505af1158015610650573d6000803e3d6000fd5b5050505050505050505050565b6106886040518060800160405280600081526020016060815260200160608152602001606081525090565b6003546040517f6b901c9f0000000000000000000000000000000000000000000000000000000081526001600160a01b0384811660048301526060928392911690636b901c9f90602401600060405180830381865afa1580156106ef573d6000803e3d6000fd5b505050506040513d6000823e601f3d908101601f191682016040526107179190810190611a03565b600254604080830151905163866ccb3160e01b81529295506001600160a01b039091169163866ccb319161074d91600401611ac2565b600060405180830381865afa15801561076a573d6000803e3d6000fd5b505050506040513d6000823e601f3d908101601f191682016040526107929190810190611b06565b600254606085015160405163866ccb3160e01b81529294506001600160a01b039091169163866ccb31916107c891600401611ac2565b600060405180830381865afa1580156107e5573d6000803e3d6000fd5b505050506040513d6000823e601f3d908101601f1916820160405261080d9190810190611b06565b929491935050565b60008281526020819052604090206001015461083081610af9565b6105398383610ba4565b6002546040517f86fff26f0000000000000000000000000000000000000000000000000000000081526000916001600160a01b0316906386fff26f906108909033908b908b908b908b908b908b90600401611bb7565b6020604051808303816000875af11580156108af573d6000803e3d6000fd5b505050506040513d601f19601f820116820180604052508101906108d39190611c2d565b6003546040517f779eae53000000000000000000000000000000000000000000000000000000008152336004820152602481018390529192506001600160a01b03169063779eae5390604401600060405180830381600087803b15801561093957600080fd5b505af115801561094d573d6000803e3d6000fd5b505050509695505050505050565b6003546040517fd0def5210000000000000000000000000000000000000000000000000000000081526000916001600160a01b03169063d0def521906109a990339087908790600401611c46565b6020604051808303816000875af11580156109c8573d6000803e3d6000fd5b505050506040513d601f19601f820116820180604052508101906109ec9190611c2d565b9392505050565b6003546040517ffcc6aa5200000000000000000000000000000000000000000000000000000000815260048101849052602481018390526001600160a01b039091169063fcc6aa5290604401600060405180830381600087803b158015610a5957600080fd5b505af1158015610a6d573d6000803e3d6000fd5b50506002546040517f3a92c1bb00000000000000000000000000000000000000000000000000000000815233600482015260248101869052604481018590526001600160a01b039091169250633a92c1bb9150606401600060405180830381600087803b158015610add57600080fd5b505af1158015610af1573d6000803e3d6000fd5b505050505050565b610b038133610c23565b50565b6000828152602081815260408083206001600160a01b038516845290915290205460ff1661015c576000828152602081815260408083206001600160a01b03851684529091529020805460ff19166001179055610b603390565b6001600160a01b0316816001600160a01b0316837f2f8788117e7eff1d82e926ec794901d17c78024a50270940304540a733656f0d60405160405180910390a45050565b6000828152602081815260408083206001600160a01b038516845290915290205460ff161561015c576000828152602081815260408083206001600160a01b0385168085529252808320805460ff1916905551339285917ff6391f5c32d9c69d2a47ea670b442974b53935d1edc7fd64eb21e047a839171b9190a45050565b6000828152602081815260408083206001600160a01b038516845290915290205460ff1661015c57610c5481610c96565b610c5f836020610ca8565b604051602001610c70929190611c85565b60408051601f198184030181529082905262461bcd60e51b82526105b891600401611d06565b606061041f6001600160a01b03831660145b60606000610cb7836002611d2f565b610cc2906002611d46565b67ffffffffffffffff811115610cda57610cda61118f565b6040519080825280601f01601f191660200182016040528015610d04576020820181803683370190505b5090507f300000000000000000000000000000000000000000000000000000000000000081600081518110610d3b57610d3b611d59565b60200101906001600160f81b031916908160001a9053507f780000000000000000000000000000000000000000000000000000000000000081600181518110610d8657610d86611d59565b60200101906001600160f81b031916908160001a9053506000610daa846002611d2f565b610db5906001611d46565b90505b6001811115610e3a577f303132333435363738396162636465660000000000000000000000000000000085600f1660108110610df657610df6611d59565b1a60f81b828281518110610e0c57610e0c611d59565b60200101906001600160f81b031916908160001a90535060049490941c93610e3381611d6f565b9050610db8565b5083156109ec5760405162461bcd60e51b815260206004820181905260248201527f537472696e67733a20686578206c656e67746820696e73756666696369656e7460448201526064016105b8565b600060208284031215610e9b57600080fd5b81357fffffffff00000000000000000000000000000000000000000000000000000000811681146109ec57600080fd5b60008060408385031215610ede57600080fd5b50508035926020909101359150565b600060208284031215610eff57600080fd5b5035919050565b60005b83811015610f21578181015183820152602001610f09565b50506000910152565b60008151808452610f42816020860160208601610f06565b601f01601f19169290920160200192915050565b600081518084526020808501945080840160005b83811015610f8f5781516001600160a01b031687529582019590820190600101610f6a565b509495945050505050565b600081518084526020808501945080840160005b83811015610f8f57815187529582019590820190600101610fae565b6000610140825184526020830151816020860152610fea82860182610f2a565b915050604083015184820360408601526110048282610f2a565b9150506060830151848203606086015261101e8282610f2a565b9150506080830151608085015260a083015160a085015260c083015184820360c086015261104c8282610f2a565b91505060e083015184820360e08601526110668282610f56565b91505061010080840151858303828701526110818382610f9a565b92505050610120808401516110998287018215159052565b5090949350505050565b600060408083526110b681840186610fca565b6020848203818601528186518084528284019150828160051b85010183890160005b8381101561113a57868303601f190185528151805184528681015187850152888101511515898501526060808201519085015260809081015160a09185018290529061112681860183610f2a565b9688019694505050908501906001016110d8565b50909a9950505050505050505050565b6001600160a01b0381168114610b0357600080fd5b6000806040838503121561117257600080fd5b8235915060208301356111848161114a565b809150509250929050565b634e487b7160e01b600052604160045260246000fd5b604051610140810167ffffffffffffffff811182821017156111c9576111c961118f565b60405290565b60405160a0810167ffffffffffffffff811182821017156111c9576111c961118f565b6040516080810167ffffffffffffffff811182821017156111c9576111c961118f565b604051601f8201601f1916810167ffffffffffffffff8111828210171561123e5761123e61118f565b604052919050565b600067ffffffffffffffff8211156112605761126061118f565b50601f01601f191660200190565b600082601f83011261127f57600080fd5b813561129261128d82611246565b611215565b8181528460208386010111156112a757600080fd5b816020850160208301376000918101602001919091529392505050565b600080600080600080600060e0888a0312156112df57600080fd5b87359650602088013567ffffffffffffffff808211156112fe57600080fd5b61130a8b838c0161126e565b975060408a013591508082111561132057600080fd5b61132c8b838c0161126e565b965060608a013591508082111561134257600080fd5b61134e8b838c0161126e565b955060808a0135945060a08a0135935060c08a013591508082111561137257600080fd5b5061137f8a828b0161126e565b91505092959891949750929550565b6000602082840312156113a057600080fd5b81356109ec8161114a565b600081518084526020808501808196508360051b8101915082860160005b858110156113f35782840389526113e1848351610fca565b988501989350908401906001016113c9565b5091979650505050505050565b60608152835160608201526000602085015160808084015261142560e0840182610f2a565b90506040860151605f19808584030160a08601526114438383610f9a565b925060608801519150808584030160c0860152506114618282610f9a565b915050828103602084015261147681866113ab565b9050828103604084015261148a81856113ab565b9695505050505050565b60008060008060008060c087890312156114ad57600080fd5b863567ffffffffffffffff808211156114c557600080fd5b6114d18a838b0161126e565b975060208901359150808211156114e757600080fd5b6114f38a838b0161126e565b9650604089013591508082111561150957600080fd5b6115158a838b0161126e565b9550606089013594506080890135935060a089013591508082111561153957600080fd5b5061154689828a0161126e565b9150509295509295509295565b6000806020838503121561156657600080fd5b823567ffffffffffffffff8082111561157e57600080fd5b818501915085601f83011261159257600080fd5b8135818111156115a157600080fd5b8660208285010111156115b357600080fd5b60209290920196919550909350505050565b600082601f8301126115d657600080fd5b81516115e461128d82611246565b8181528460208386010111156115f957600080fd5b61160a826020830160208701610f06565b949350505050565b600067ffffffffffffffff82111561162c5761162c61118f565b5060051b60200190565b600082601f83011261164757600080fd5b8151602061165761128d83611612565b82815260059290921b8401810191818101908684111561167657600080fd5b8286015b8481101561169a57805161168d8161114a565b835291830191830161167a565b509695505050505050565b600082601f8301126116b657600080fd5b815160206116c661128d83611612565b82815260059290921b840181019181810190868411156116e557600080fd5b8286015b8481101561169a57805183529183019183016116e9565b8051801515811461171057600080fd5b919050565b6000610140828403121561172857600080fd5b6117306111a5565b905081518152602082015167ffffffffffffffff8082111561175157600080fd5b61175d858386016115c5565b6020840152604084015191508082111561177657600080fd5b611782858386016115c5565b6040840152606084015191508082111561179b57600080fd5b6117a7858386016115c5565b60608401526080840151608084015260a084015160a084015260c08401519150808211156117d457600080fd5b6117e0858386016115c5565b60c084015260e08401519150808211156117f957600080fd5b61180585838601611636565b60e08401526101009150818401518181111561182057600080fd5b61182c868287016116a5565b83850152505050610120611841818401611700565b9082015292915050565b6000806040838503121561185e57600080fd5b825167ffffffffffffffff8082111561187657600080fd5b61188286838701611715565b935060209150818501518181111561189957600080fd5b8501601f810187136118aa57600080fd5b80516118b861128d82611612565b81815260059190911b820184019084810190898311156118d757600080fd5b8584015b83811015611972578051868111156118f257600080fd5b850160a0818d03601f190112156119095760008081fd5b6119116111cf565b888201518152604082015189820152606061192d818401611700565b60408301526080808401518284015260a08401519150898211156119515760008081fd5b61195f8f8c848701016115c5565b90830152508452509186019186016118db565b508096505050505050509250929050565b60006101006001600160a01b038b1683528960208401528060408401526119ac8184018a610f2a565b905082810360608401526119c08189610f2a565b905082810360808401526119d48188610f2a565b90508560a08401528460c084015282810360e08401526119f48185610f2a565b9b9a5050505050505050505050565b600060208284031215611a1557600080fd5b815167ffffffffffffffff80821115611a2d57600080fd5b9083019060808286031215611a4157600080fd5b611a496111f2565b82518152602083015182811115611a5f57600080fd5b611a6b878286016115c5565b602083015250604083015182811115611a8357600080fd5b611a8f878286016116a5565b604083015250606083015182811115611aa757600080fd5b611ab3878286016116a5565b60608301525095945050505050565b6020808252825182820181905260009190848201906040850190845b81811015611afa57835183529284019291840191600101611ade565b50909695505050505050565b60006020808385031215611b1957600080fd5b825167ffffffffffffffff80821115611b3157600080fd5b818501915085601f830112611b4557600080fd5b8151611b5361128d82611612565b81815260059190911b83018401908481019088831115611b7257600080fd5b8585015b83811015611baa57805185811115611b8e5760008081fd5b611b9c8b89838a0101611715565b845250918601918601611b76565b5098975050505050505050565b6001600160a01b038816815260e060208201526000611bd960e0830189610f2a565b8281036040840152611beb8189610f2a565b90508281036060840152611bff8188610f2a565b90508560808401528460a084015282810360c0840152611c1f8185610f2a565b9a9950505050505050505050565b600060208284031215611c3f57600080fd5b5051919050565b6001600160a01b038416815260406020820152816040820152818360608301376000818301606090810191909152601f909201601f1916010192915050565b7f416363657373436f6e74726f6c3a206163636f756e7420000000000000000000815260008351611cbd816017850160208801610f06565b7f206973206d697373696e6720726f6c65200000000000000000000000000000006017918401918201528351611cfa816028840160208801610f06565b01602801949350505050565b6020815260006109ec6020830184610f2a565b634e487b7160e01b600052601160045260246000fd5b808202811582820484141761041f5761041f611d19565b8082018082111561041f5761041f611d19565b634e487b7160e01b600052603260045260246000fd5b600081611d7e57611d7e611d19565b50600019019056fea2646970667358221220c3227ab12689c8ebd4d710fdefa7fb5cda497ac0d4d7fb1600d4eda7311ef48e64736f6c63430008120033",
  "devdoc": {
    "events": {
      "RoleAdminChanged(bytes32,bytes32,bytes32)": {
        "details": "Emitted when `newAdminRole` is set as ``role``'s admin role, replacing `previousAdminRole` `DEFAULT_ADMIN_ROLE` is the starting admin for all roles, despite {RoleAdminChanged} not being emitted signaling this. _Available since v3.1._"
      },
      "RoleGranted(bytes32,address,address)": {
        "details": "Emitted when `account` is granted `role`. `sender` is the account that originated the contract call, an admin role bearer except when using {AccessControl-_setupRole}."
      },
      "RoleRevoked(bytes32,address,address)": {
        "details": "Emitted when `account` is revoked `role`. `sender` is the account that originated the contract call:   - if using `revokeRole`, it is the admin role bearer   - if using `renounceRole`, it is the role bearer (i.e. `account`)"
      }
    },
    "kind": "dev",
    "methods": {
      "getRoleAdmin(bytes32)": {
        "details": "Returns the admin role that controls `role`. See {grantRole} and {revokeRole}. To change a role's admin, use {_setRoleAdmin}."
      },
      "grantRole(bytes32,address)": {
        "details": "Grants `role` to `account`. If `account` had not been already granted `role`, emits a {RoleGranted} event. Requirements: - the caller must have ``role``'s admin role. May emit a {RoleGranted} event."
      },
      "hasRole(bytes32,address)": {
        "details": "Returns `true` if `account` has been granted `role`."
      },
      "renounceRole(bytes32,address)": {
        "details": "Revokes `role` from the calling account. Roles are often managed via {grantRole} and {revokeRole}: this function's purpose is to provide a mechanism for accounts to lose their privileges if they are compromised (such as when a trusted device is misplaced). If the calling account had been revoked `role`, emits a {RoleRevoked} event. Requirements: - the caller must be `account`. May emit a {RoleRevoked} event."
      },
      "revokeRole(bytes32,address)": {
        "details": "Revokes `role` from `account`. If `account` had been granted `role`, emits a {RoleRevoked} event. Requirements: - the caller must have ``role``'s admin role. May emit a {RoleRevoked} event."
      },
      "supportsInterface(bytes4)": {
        "details": "See {IERC165-supportsInterface}."
      }
    },
    "version": 1
  },
  "userdoc": {
    "kind": "user",
    "methods": {
      "constructor": {
        "notice": "Contract Constructor"
      }
    },
    "version": 1
  },
  "storageLayout": {
    "storage": [
      {
        "astId": 24,
        "contract": "contracts/VibeManager.sol:VibeManager",
        "label": "_roles",
        "offset": 0,
        "slot": "0",
        "type": "t_mapping(t_bytes32,t_struct(RoleData)19_storage)"
      },
      {
        "astId": 399,
        "contract": "contracts/VibeManager.sol:VibeManager",
        "label": "_status",
        "offset": 0,
        "slot": "1",
        "type": "t_uint256"
      },
      {
        "astId": 1954,
        "contract": "contracts/VibeManager.sol:VibeManager",
        "label": "vibeContract",
        "offset": 0,
        "slot": "2",
        "type": "t_contract(IVibe)1842"
      },
      {
        "astId": 1957,
        "contract": "contracts/VibeManager.sol:VibeManager",
        "label": "viberContract",
        "offset": 0,
        "slot": "3",
        "type": "t_contract(IViber)1883"
      }
    ],
    "types": {
      "t_address": {
        "encoding": "inplace",
        "label": "address",
        "numberOfBytes": "20"
      },
      "t_bool": {
        "encoding": "inplace",
        "label": "bool",
        "numberOfBytes": "1"
      },
      "t_bytes32": {
        "encoding": "inplace",
        "label": "bytes32",
        "numberOfBytes": "32"
      },
      "t_contract(IVibe)1842": {
        "encoding": "inplace",
        "label": "contract IVibe",
        "numberOfBytes": "20"
      },
      "t_contract(IViber)1883": {
        "encoding": "inplace",
        "label": "contract IViber",
        "numberOfBytes": "20"
      },
      "t_mapping(t_address,t_bool)": {
        "encoding": "mapping",
        "key": "t_address",
        "label": "mapping(address => bool)",
        "numberOfBytes": "32",
        "value": "t_bool"
      },
      "t_mapping(t_bytes32,t_struct(RoleData)19_storage)": {
        "encoding": "mapping",
        "key": "t_bytes32",
        "label": "mapping(bytes32 => struct AccessControl.RoleData)",
        "numberOfBytes": "32",
        "value": "t_struct(RoleData)19_storage"
      },
      "t_struct(RoleData)19_storage": {
        "encoding": "inplace",
        "label": "struct AccessControl.RoleData",
        "members": [
          {
            "astId": 16,
            "contract": "contracts/VibeManager.sol:VibeManager",
            "label": "members",
            "offset": 0,
            "slot": "0",
            "type": "t_mapping(t_address,t_bool)"
          },
          {
            "astId": 18,
            "contract": "contracts/VibeManager.sol:VibeManager",
            "label": "adminRole",
            "offset": 0,
            "slot": "1",
            "type": "t_bytes32"
          }
        ],
        "numberOfBytes": "64"
      },
      "t_uint256": {
        "encoding": "inplace",
        "label": "uint256",
        "numberOfBytes": "32"
      }
    }
  }
}