{
  "address": "0x0Fb126e2d802B2734367048eE28867eb7E47A4FA",
  "abi": [
    {
      "inputs": [],
      "stateMutability": "nonpayable",
      "type": "constructor"
    },
    {
      "anonymous": false,
      "inputs": [
        {
          "indexed": true,
          "internalType": "uint256",
          "name": "vibeId",
          "type": "uint256"
        },
        {
          "indexed": true,
          "internalType": "address",
          "name": "participant",
          "type": "address"
        }
      ],
      "name": "ParticipantAdded",
      "type": "event"
    },
    {
      "anonymous": false,
      "inputs": [
        {
          "indexed": true,
          "internalType": "uint256",
          "name": "vibeId",
          "type": "uint256"
        },
        {
          "indexed": true,
          "internalType": "address",
          "name": "participant",
          "type": "address"
        }
      ],
      "name": "ParticipantRemoved",
      "type": "event"
    },
    {
      "anonymous": false,
      "inputs": [
        {
          "indexed": true,
          "internalType": "bytes32",
          "name": "role",
          "type": "bytes32"
        },
        {
          "indexed": true,
          "internalType": "bytes32",
          "name": "previousAdminRole",
          "type": "bytes32"
        },
        {
          "indexed": true,
          "internalType": "bytes32",
          "name": "newAdminRole",
          "type": "bytes32"
        }
      ],
      "name": "RoleAdminChanged",
      "type": "event"
    },
    {
      "anonymous": false,
      "inputs": [
        {
          "indexed": true,
          "internalType": "bytes32",
          "name": "role",
          "type": "bytes32"
        },
        {
          "indexed": true,
          "internalType": "address",
          "name": "account",
          "type": "address"
        },
        {
          "indexed": true,
          "internalType": "address",
          "name": "sender",
          "type": "address"
        }
      ],
      "name": "RoleGranted",
      "type": "event"
    },
    {
      "anonymous": false,
      "inputs": [
        {
          "indexed": true,
          "internalType": "bytes32",
          "name": "role",
          "type": "bytes32"
        },
        {
          "indexed": true,
          "internalType": "address",
          "name": "account",
          "type": "address"
        },
        {
          "indexed": true,
          "internalType": "address",
          "name": "sender",
          "type": "address"
        }
      ],
      "name": "RoleRevoked",
      "type": "event"
    },
    {
      "anonymous": false,
      "inputs": [
        {
          "indexed": true,
          "internalType": "uint256",
          "name": "vibeId",
          "type": "uint256"
        }
      ],
      "name": "VibeCreated",
      "type": "event"
    },
    {
      "anonymous": false,
      "inputs": [
        {
          "indexed": true,
          "internalType": "uint256",
          "name": "vibeId",
          "type": "uint256"
        }
      ],
      "name": "VibeUpdated",
      "type": "event"
    },
    {
      "stateMutability": "payable",
      "type": "fallback"
    },
    {
      "inputs": [],
      "name": "DEFAULT_ADMIN_ROLE",
      "outputs": [
        {
          "internalType": "bytes32",
          "name": "",
          "type": "bytes32"
        }
      ],
      "stateMutability": "view",
      "type": "function"
    },
    {
      "inputs": [],
      "name": "MANAGER_ROLE",
      "outputs": [
        {
          "internalType": "bytes32",
          "name": "",
          "type": "bytes32"
        }
      ],
      "stateMutability": "view",
      "type": "function"
    },
    {
      "inputs": [
        {
          "internalType": "address",
          "name": "_sender",
          "type": "address"
        },
        {
          "internalType": "uint256",
          "name": "_vibeId",
          "type": "uint256"
        },
        {
          "internalType": "address",
          "name": "_newAdmin",
          "type": "address"
        }
      ],
      "name": "addAdmin",
      "outputs": [],
      "stateMutability": "nonpayable",
      "type": "function"
    },
    {
      "inputs": [
        {
          "internalType": "address",
          "name": "_sender",
          "type": "address"
        },
        {
          "internalType": "uint256",
          "name": "_vibeId",
          "type": "uint256"
        },
        {
          "internalType": "address[]",
          "name": "_users",
          "type": "address[]"
        }
      ],
      "name": "addToWhitelist",
      "outputs": [],
      "stateMutability": "nonpayable",
      "type": "function"
    },
    {
      "inputs": [
        {
          "internalType": "address",
          "name": "_creator",
          "type": "address"
        },
        {
          "internalType": "string",
          "name": "_name",
          "type": "string"
        },
        {
          "internalType": "string",
          "name": "_shortName",
          "type": "string"
        },
        {
          "internalType": "string",
          "name": "_imageUrl",
          "type": "string"
        },
        {
          "internalType": "uint256",
          "name": "_startDate",
          "type": "uint256"
        },
        {
          "internalType": "uint256",
          "name": "_endDate",
          "type": "uint256"
        },
        {
          "internalType": "string",
          "name": "_eventType",
          "type": "string"
        }
      ],
      "name": "createVibe",
      "outputs": [
        {
          "internalType": "uint256",
          "name": "",
          "type": "uint256"
        }
      ],
      "stateMutability": "nonpayable",
      "type": "function"
    },
    {
      "inputs": [
        {
          "internalType": "bytes32",
          "name": "role",
          "type": "bytes32"
        }
      ],
      "name": "getRoleAdmin",
      "outputs": [
        {
          "internalType": "bytes32",
          "name": "",
          "type": "bytes32"
        }
      ],
      "stateMutability": "view",
      "type": "function"
    },
    {
      "inputs": [
        {
          "internalType": "uint256",
          "name": "_vibeId",
          "type": "uint256"
        }
      ],
      "name": "getVibeAndVibees",
      "outputs": [
        {
          "components": [
            {
              "internalType": "uint256",
              "name": "id",
              "type": "uint256"
            },
            {
              "internalType": "string",
              "name": "name",
              "type": "string"
            },
            {
              "internalType": "string",
              "name": "shortName",
              "type": "string"
            },
            {
              "internalType": "string",
              "name": "imageUrl",
              "type": "string"
            },
            {
              "internalType": "uint256",
              "name": "startDate",
              "type": "uint256"
            },
            {
              "internalType": "uint256",
              "name": "endDate",
              "type": "uint256"
            },
            {
              "internalType": "string",
              "name": "eventType",
              "type": "string"
            },
            {
              "internalType": "address[]",
              "name": "admins",
              "type": "address[]"
            },
            {
              "internalType": "uint256[]",
              "name": "participantIds",
              "type": "uint256[]"
            },
            {
              "internalType": "bool",
              "name": "live",
              "type": "bool"
            }
          ],
          "internalType": "struct VibeStats",
          "name": "",
          "type": "tuple"
        },
        {
          "components": [
            {
              "internalType": "uint256",
              "name": "vibe",
              "type": "uint256"
            },
            {
              "internalType": "uint256",
              "name": "viber",
              "type": "uint256"
            },
            {
              "internalType": "bool",
              "name": "exists",
              "type": "bool"
            },
            {
              "internalType": "uint256",
              "name": "achievements",
              "type": "uint256"
            },
            {
              "internalType": "string",
              "name": "status",
              "type": "string"
            }
          ],
          "internalType": "struct VibeeStats[]",
          "name": "",
          "type": "tuple[]"
        }
      ],
      "stateMutability": "view",
      "type": "function"
    },
    {
      "inputs": [
        {
          "internalType": "uint256[]",
          "name": "_vibeIds",
          "type": "uint256[]"
        }
      ],
      "name": "getVibes",
      "outputs": [
        {
          "components": [
            {
              "internalType": "uint256",
              "name": "id",
              "type": "uint256"
            },
            {
              "internalType": "string",
              "name": "name",
              "type": "string"
            },
            {
              "internalType": "string",
              "name": "shortName",
              "type": "string"
            },
            {
              "internalType": "string",
              "name": "imageUrl",
              "type": "string"
            },
            {
              "internalType": "uint256",
              "name": "startDate",
              "type": "uint256"
            },
            {
              "internalType": "uint256",
              "name": "endDate",
              "type": "uint256"
            },
            {
              "internalType": "string",
              "name": "eventType",
              "type": "string"
            },
            {
              "internalType": "address[]",
              "name": "admins",
              "type": "address[]"
            },
            {
              "internalType": "uint256[]",
              "name": "participantIds",
              "type": "uint256[]"
            },
            {
              "internalType": "bool",
              "name": "live",
              "type": "bool"
            }
          ],
          "internalType": "struct VibeStats[]",
          "name": "",
          "type": "tuple[]"
        }
      ],
      "stateMutability": "view",
      "type": "function"
    },
    {
      "inputs": [
        {
          "internalType": "bytes32",
          "name": "role",
          "type": "bytes32"
        },
        {
          "internalType": "address",
          "name": "account",
          "type": "address"
        }
      ],
      "name": "grantRole",
      "outputs": [],
      "stateMutability": "nonpayable",
      "type": "function"
    },
    {
      "inputs": [
        {
          "internalType": "bytes32",
          "name": "role",
          "type": "bytes32"
        },
        {
          "internalType": "address",
          "name": "account",
          "type": "address"
        }
      ],
      "name": "hasRole",
      "outputs": [
        {
          "internalType": "bool",
          "name": "",
          "type": "bool"
        }
      ],
      "stateMutability": "view",
      "type": "function"
    },
    {
      "inputs": [
        {
          "internalType": "address",
          "name": "_user",
          "type": "address"
        },
        {
          "internalType": "uint256",
          "name": "_viberId",
          "type": "uint256"
        },
        {
          "internalType": "uint256",
          "name": "_vibeId",
          "type": "uint256"
        }
      ],
      "name": "joinVibe",
      "outputs": [],
      "stateMutability": "nonpayable",
      "type": "function"
    },
    {
      "inputs": [
        {
          "internalType": "uint256",
          "name": "_vibeId",
          "type": "uint256"
        },
        {
          "internalType": "address",
          "name": "_retiredAdmin",
          "type": "address"
        }
      ],
      "name": "removeAdmin",
      "outputs": [],
      "stateMutability": "nonpayable",
      "type": "function"
    },
    {
      "inputs": [
        {
          "internalType": "uint256",
          "name": "_vibeId",
          "type": "uint256"
        },
        {
          "internalType": "address[]",
          "name": "_users",
          "type": "address[]"
        }
      ],
      "name": "removeFromWhitelist",
      "outputs": [],
      "stateMutability": "nonpayable",
      "type": "function"
    },
    {
      "inputs": [
        {
          "internalType": "bytes32",
          "name": "role",
          "type": "bytes32"
        },
        {
          "internalType": "address",
          "name": "account",
          "type": "address"
        }
      ],
      "name": "renounceRole",
      "outputs": [],
      "stateMutability": "nonpayable",
      "type": "function"
    },
    {
      "inputs": [
        {
          "internalType": "bytes32",
          "name": "role",
          "type": "bytes32"
        },
        {
          "internalType": "address",
          "name": "account",
          "type": "address"
        }
      ],
      "name": "revokeRole",
      "outputs": [],
      "stateMutability": "nonpayable",
      "type": "function"
    },
    {
      "inputs": [
        {
          "internalType": "bytes4",
          "name": "interfaceId",
          "type": "bytes4"
        }
      ],
      "name": "supportsInterface",
      "outputs": [
        {
          "internalType": "bool",
          "name": "",
          "type": "bool"
        }
      ],
      "stateMutability": "view",
      "type": "function"
    },
    {
      "inputs": [
        {
          "internalType": "address",
          "name": "_sender",
          "type": "address"
        },
        {
          "internalType": "uint256",
          "name": "_vibeId",
          "type": "uint256"
        },
        {
          "internalType": "string",
          "name": "_name",
          "type": "string"
        },
        {
          "internalType": "string",
          "name": "_shortName",
          "type": "string"
        },
        {
          "internalType": "string",
          "name": "_imageUrl",
          "type": "string"
        },
        {
          "internalType": "uint256",
          "name": "_startDate",
          "type": "uint256"
        },
        {
          "internalType": "uint256",
          "name": "_endDate",
          "type": "uint256"
        },
        {
          "internalType": "string",
          "name": "_eventType",
          "type": "string"
        }
      ],
      "name": "updateVibe",
      "outputs": [],
      "stateMutability": "nonpayable",
      "type": "function"
    },
    {
      "inputs": [
        {
          "internalType": "uint256",
          "name": "",
          "type": "uint256"
        },
        {
          "internalType": "uint256",
          "name": "",
          "type": "uint256"
        }
      ],
      "name": "vibees",
      "outputs": [
        {
          "internalType": "uint256",
          "name": "vibe",
          "type": "uint256"
        },
        {
          "internalType": "uint256",
          "name": "viber",
          "type": "uint256"
        },
        {
          "internalType": "bool",
          "name": "exists",
          "type": "bool"
        },
        {
          "internalType": "uint256",
          "name": "achievements",
          "type": "uint256"
        },
        {
          "internalType": "string",
          "name": "status",
          "type": "string"
        }
      ],
      "stateMutability": "view",
      "type": "function"
    },
    {
      "inputs": [
        {
          "internalType": "uint256",
          "name": "",
          "type": "uint256"
        }
      ],
      "name": "vibes",
      "outputs": [
        {
          "internalType": "uint256",
          "name": "id",
          "type": "uint256"
        },
        {
          "internalType": "string",
          "name": "name",
          "type": "string"
        },
        {
          "internalType": "string",
          "name": "shortName",
          "type": "string"
        },
        {
          "internalType": "string",
          "name": "imageUrl",
          "type": "string"
        },
        {
          "internalType": "uint256",
          "name": "startDate",
          "type": "uint256"
        },
        {
          "internalType": "uint256",
          "name": "endDate",
          "type": "uint256"
        },
        {
          "internalType": "string",
          "name": "eventType",
          "type": "string"
        },
        {
          "internalType": "bool",
          "name": "live",
          "type": "bool"
        }
      ],
      "stateMutability": "view",
      "type": "function"
    },
    {
      "inputs": [
        {
          "internalType": "uint256",
          "name": "",
          "type": "uint256"
        },
        {
          "internalType": "address",
          "name": "",
          "type": "address"
        }
      ],
      "name": "whitelist",
      "outputs": [
        {
          "internalType": "bool",
          "name": "",
          "type": "bool"
        }
      ],
      "stateMutability": "view",
      "type": "function"
    },
    {
      "stateMutability": "payable",
      "type": "receive"
    }
  ],
  "transactionHash": "0xfa49b379ee166a6400704411d45b6f6fa6f081b057099c2605269b77fa9a116b",
  "args": [],
  "numDeployments": 1,
  "solcInputHash": "bb4704f71d5e3eba32be3beb95249185",
  "bytecode": "0x60806040523480156200001157600080fd5b50600180556200002360003362000055565b6200004f7f241ecf16d79d0f8dbfb92cbc07fe17840425976cf0667f022fe9877caa831b083362000055565b620000f6565b6000828152602081815260408083206001600160a01b038516845290915290205460ff16620000f2576000828152602081815260408083206001600160a01b03851684529091529020805460ff19166001179055620000b13390565b6001600160a01b0316816001600160a01b0316837f2f8788117e7eff1d82e926ec794901d17c78024a50270940304540a733656f0d60405160405180910390a45b5050565b612fc180620001066000396000f3fe60806040526004361061014b5760003560e01c80637eb0bdc9116100b4578063d3a14b191161006e578063e2967fad11610056578063e2967fad1461041a578063ec87621c1461043a578063f221c20c1461046e57005b8063d3a14b19146103da578063d547741f146103fa57005b806386fff26f1161009c57806386fff26f1461036157806391d1485414610381578063a217fddf146103c557005b80637eb0bdc914610315578063866ccb311461033457005b80632f2ff15d116101055780633a92c1bb116100ed5780633a92c1bb146102895780634b25bfce146102a95780635a1dcb95146102e457005b80632f2ff15d1461024957806336568abe1461026957005b8063248a9ca311610133578063248a9ca3146101b757806327b07463146101f55780632baaa1c21461022957005b806301ffc9a714610154578063149d6c341461018957005b3661015257005b005b34801561016057600080fd5b5061017461016f366004612480565b610489565b60405190151581526020015b60405180910390f35b34801561019557600080fd5b506101a96101a43660046124c2565b610522565b604051610180929190612678565b3480156101c357600080fd5b506101e76101d23660046124c2565b60009081526020819052604090206001015490565b604051908152602001610180565b34801561020157600080fd5b506102156102103660046124c2565b610ab1565b60405161018098979695949392919061271f565b34801561023557600080fd5b5061015261024436600461286c565b610d15565b34801561025557600080fd5b50610152610264366004612947565b610e15565b34801561027557600080fd5b50610152610284366004612947565b610e3f565b34801561029557600080fd5b506101526102a4366004612973565b610ec7565b3480156102b557600080fd5b506101746102c4366004612947565b600560209081526000928352604080842090915290825290205460ff1681565b3480156102f057600080fd5b506103046102ff3660046129a6565b611347565b6040516101809594939291906129c8565b34801561032157600080fd5b50610152610330366004612947565b5050565b34801561034057600080fd5b5061035461034f366004612a24565b61140c565b6040516101809190612aaf565b34801561036d57600080fd5b506101e761037c366004612b11565b611866565b34801561038d57600080fd5b5061017461039c366004612947565b6000918252602082815260408084206001600160a01b0393909316845291905290205460ff1690565b3480156103d157600080fd5b506101e7600081565b3480156103e657600080fd5b506101526103f5366004612be2565b611ab6565b34801561040657600080fd5b50610152610415366004612947565b611b73565b34801561042657600080fd5b50610152610435366004612c8b565b611b98565b34801561044657600080fd5b506101e77f241ecf16d79d0f8dbfb92cbc07fe17840425976cf0667f022fe9877caa831b0881565b34801561047a57600080fd5b50610152610330366004612ce2565b60007fffffffff0000000000000000000000000000000000000000000000000000000082167f7965db0b00000000000000000000000000000000000000000000000000000000148061051c57507f01ffc9a7000000000000000000000000000000000000000000000000000000007fffffffff000000000000000000000000000000000000000000000000000000008316145b92915050565b61057a6040518061014001604052806000815260200160608152602001606081526020016060815260200160008152602001600081526020016060815260200160608152602001606081526020016000151581525090565b6000828152600360209081526040808320815161014081019092528054825260018101805460609594840191906105b090612d29565b80601f01602080910402602001604051908101604052809291908181526020018280546105dc90612d29565b80156106295780601f106105fe57610100808354040283529160200191610629565b820191906000526020600020905b81548152906001019060200180831161060c57829003601f168201915b5050505050815260200160028201805461064290612d29565b80601f016020809104026020016040519081016040528092919081815260200182805461066e90612d29565b80156106bb5780601f10610690576101008083540402835291602001916106bb565b820191906000526020600020905b81548152906001019060200180831161069e57829003601f168201915b505050505081526020016003820180546106d490612d29565b80601f016020809104026020016040519081016040528092919081815260200182805461070090612d29565b801561074d5780601f106107225761010080835404028352916020019161074d565b820191906000526020600020905b81548152906001019060200180831161073057829003601f168201915b50505050508152602001600482015481526020016005820154815260200160068201805461077a90612d29565b80601f01602080910402602001604051908101604052809291908181526020018280546107a690612d29565b80156107f35780601f106107c8576101008083540402835291602001916107f3565b820191906000526020600020905b8154815290600101906020018083116107d657829003601f168201915b505050505081526020016007820180548060200260200160405190810160405280929190818152602001828054801561085557602002820191906000526020600020905b81546001600160a01b03168152600190910190602001808311610837575b50505050508152602001600882018054806020026020016040519081016040528092919081815260200182805480156108ad57602002820191906000526020600020905b815481526020019060010190808311610899575b50505091835250506009919091015460ff1615156020909101526101008101515190915060008167ffffffffffffffff8111156108ec576108ec6127b5565b60405190808252806020026020018201604052801561095157816020015b61093e6040518060a00160405280600081526020016000815260200160001515815260200160008152602001606081525090565b81526020019060019003908161090a5790505b50905060005b82811015610aa457600087815260046020526040812061010086015180519192918490811061098857610988612d63565b602002602001015181526020019081526020016000206040518060a001604052908160008201548152602001600182015481526020016002820160009054906101000a900460ff16151515158152602001600382015481526020016004820180546109f290612d29565b80601f0160208091040260200160405190810160405280929190818152602001828054610a1e90612d29565b8015610a6b5780601f10610a4057610100808354040283529160200191610a6b565b820191906000526020600020905b815481529060010190602001808311610a4e57829003601f168201915b505050505081525050828281518110610a8657610a86612d63565b60200260200101819052508080610a9c90612d8f565b915050610957565b5091959194509092505050565b60036020526000908152604090208054600182018054919291610ad390612d29565b80601f0160208091040260200160405190810160405280929190818152602001828054610aff90612d29565b8015610b4c5780601f10610b2157610100808354040283529160200191610b4c565b820191906000526020600020905b815481529060010190602001808311610b2f57829003601f168201915b505050505090806002018054610b6190612d29565b80601f0160208091040260200160405190810160405280929190818152602001828054610b8d90612d29565b8015610bda5780601f10610baf57610100808354040283529160200191610bda565b820191906000526020600020905b815481529060010190602001808311610bbd57829003601f168201915b505050505090806003018054610bef90612d29565b80601f0160208091040260200160405190810160405280929190818152602001828054610c1b90612d29565b8015610c685780601f10610c3d57610100808354040283529160200191610c68565b820191906000526020600020905b815481529060010190602001808311610c4b57829003601f168201915b505050505090806004015490806005015490806006018054610c8990612d29565b80601f0160208091040260200160405190810160405280929190818152602001828054610cb590612d29565b8015610d025780601f10610cd757610100808354040283529160200191610d02565b820191906000526020600020905b815481529060010190602001808311610ce557829003601f168201915b5050506009909301549192505060ff1688565b7f241ecf16d79d0f8dbfb92cbc07fe17840425976cf0667f022fe9877caa831b08610d3f81611c6c565b610d49888a611c79565b610d865760405162461bcd60e51b81526020600482015260096024820152682727aa1020a226a4a760b91b60448201526064015b60405180910390fd5b600088815260036020526040902060018101610da28982612df6565b5060028101610db18882612df6565b5060038101610dc08782612df6565b50600481018590556005810184905560068101610ddd8482612df6565b5060405189907f1c7f9a8737d0d25fb59502531250ce72fc6628ac3fd814853ebcf4f776dc876d90600090a250505050505050505050565b600082815260208190526040902060010154610e3081611c6c565b610e3a8383612034565b505050565b6001600160a01b0381163314610ebd5760405162461bcd60e51b815260206004820152602f60248201527f416363657373436f6e74726f6c3a2063616e206f6e6c792072656e6f756e636560448201527f20726f6c657320666f722073656c6600000000000000000000000000000000006064820152608401610d7d565b61033082826120d2565b7f241ecf16d79d0f8dbfb92cbc07fe17840425976cf0667f022fe9877caa831b08610ef181611c6c565b6000600360008481526020019081526020016000206040518061014001604052908160008201548152602001600182018054610f2c90612d29565b80601f0160208091040260200160405190810160405280929190818152602001828054610f5890612d29565b8015610fa55780601f10610f7a57610100808354040283529160200191610fa5565b820191906000526020600020905b815481529060010190602001808311610f8857829003601f168201915b50505050508152602001600282018054610fbe90612d29565b80601f0160208091040260200160405190810160405280929190818152602001828054610fea90612d29565b80156110375780601f1061100c57610100808354040283529160200191611037565b820191906000526020600020905b81548152906001019060200180831161101a57829003601f168201915b5050505050815260200160038201805461105090612d29565b80601f016020809104026020016040519081016040528092919081815260200182805461107c90612d29565b80156110c95780601f1061109e576101008083540402835291602001916110c9565b820191906000526020600020905b8154815290600101906020018083116110ac57829003601f168201915b5050505050815260200160048201548152602001600582015481526020016006820180546110f690612d29565b80601f016020809104026020016040519081016040528092919081815260200182805461112290612d29565b801561116f5780601f106111445761010080835404028352916020019161116f565b820191906000526020600020905b81548152906001019060200180831161115257829003601f168201915b50505050508152602001600782018054806020026020016040519081016040528092919081815260200182805480156111d157602002820191906000526020600020905b81546001600160a01b031681526001909101906020018083116111b3575b505050505081526020016008820180548060200260200160405190810160405280929190818152602001828054801561122957602002820191906000526020600020905b815481526020019060010190808311611215575b505050505081526020016009820160009054906101000a900460ff1615151515815250509050600360008481526020019081526020016000206008018490806001815401808255809150506001900390600052602060002001600090919091909150556040518060a001604052808481526020018581526020016001151581526020016000815260200160405180602001604052806000815250815250600460008581526020019081526020016000206000868152602001908152602001600020600082015181600001556020820151816001015560408201518160020160006101000a81548160ff02191690831515021790555060608201518160030155608082015181600401908161133d9190612df6565b5050505050505050565b60046020818152600093845260408085209091529183529120805460018201546002830154600384015494840180549395929460ff9092169361138990612d29565b80601f01602080910402602001604051908101604052809291908181526020018280546113b590612d29565b80156114025780601f106113d757610100808354040283529160200191611402565b820191906000526020600020905b8154815290600101906020018083116113e557829003601f168201915b5050505050905085565b805160609060008167ffffffffffffffff81111561142c5761142c6127b5565b6040519080825280602002602001820160405280156114b557816020015b6114a26040518061014001604052806000815260200160608152602001606081526020016060815260200160008152602001600081526020016060815260200160608152602001606081526020016000151581525090565b81526020019060019003908161144a5790505b50905060005b8281101561185e57600360008683815181106114d9576114d9612d63565b60200260200101518152602001908152602001600020604051806101400160405290816000820154815260200160018201805461151590612d29565b80601f016020809104026020016040519081016040528092919081815260200182805461154190612d29565b801561158e5780601f106115635761010080835404028352916020019161158e565b820191906000526020600020905b81548152906001019060200180831161157157829003601f168201915b505050505081526020016002820180546115a790612d29565b80601f01602080910402602001604051908101604052809291908181526020018280546115d390612d29565b80156116205780601f106115f557610100808354040283529160200191611620565b820191906000526020600020905b81548152906001019060200180831161160357829003601f168201915b5050505050815260200160038201805461163990612d29565b80601f016020809104026020016040519081016040528092919081815260200182805461166590612d29565b80156116b25780601f10611687576101008083540402835291602001916116b2565b820191906000526020600020905b81548152906001019060200180831161169557829003601f168201915b5050505050815260200160048201548152602001600582015481526020016006820180546116df90612d29565b80601f016020809104026020016040519081016040528092919081815260200182805461170b90612d29565b80156117585780601f1061172d57610100808354040283529160200191611758565b820191906000526020600020905b81548152906001019060200180831161173b57829003601f168201915b50505050508152602001600782018054806020026020016040519081016040528092919081815260200182805480156117ba57602002820191906000526020600020905b81546001600160a01b0316815260019091019060200180831161179c575b505050505081526020016008820180548060200260200160405190810160405280929190818152602001828054801561181257602002820191906000526020600020905b8154815260200190600101908083116117fe575b50505091835250506009919091015460ff161515602090910152825183908390811061184057611840612d63565b6020026020010181905250808061185690612d8f565b9150506114bb565b509392505050565b60007f241ecf16d79d0f8dbfb92cbc07fe17840425976cf0667f022fe9877caa831b0861189281611c6c565b600280549060006118a283612d8f565b91905055506040518061014001604052806002548152602001898152602001888152602001878152602001868152602001858152602001848152602001600067ffffffffffffffff8111156118f9576118f96127b5565b604051908082528060200260200182016040528015611922578160200160208202803683370190505b5081526020016000604051908082528060200260200182016040528015611953578160200160208202803683370190505b50815260016020918201819052600254600090815260038352604090208351815591830151908201906119869082612df6565b506040820151600282019061199b9082612df6565b50606082015160038201906119b09082612df6565b506080820151600482015560a0820151600582015560c082015160068201906119d99082612df6565b5060e082015180516119f59160078401916020909101906123be565b506101008201518051611a12916008840191602090910190612430565b5061012091909101516009909101805460ff19169115159190911790556002805460009081526003602090815260408083206007018054600181018255908452918320909101805473ffffffffffffffffffffffffffffffffffffffff19166001600160a01b038e16179055915491517f4d233849cb46460bbb02191c52cb92c05500c557ca0dd9d433731cdf9b404e709190a25050600254979650505050505050565b7f241ecf16d79d0f8dbfb92cbc07fe17840425976cf0667f022fe9877caa831b08611ae081611c6c565b611aea8385611c79565b611b225760405162461bcd60e51b81526020600482015260096024820152682727aa1020a226a4a760b91b6044820152606401610d7d565b506000918252600360209081526040832060070180546001810182559084529220909101805473ffffffffffffffffffffffffffffffffffffffff19166001600160a01b0390921691909117905550565b600082815260208190526040902060010154611b8e81611c6c565b610e3a83836120d2565b611ba28284611c79565b611bee5760405162461bcd60e51b815260206004820152600860248201527f4e4f5441444d494e0000000000000000000000000000000000000000000000006044820152606401610d7d565b805160005b81811015611c65576000848152600560205260408120845160019290869085908110611c2157611c21612d63565b6020908102919091018101516001600160a01b03168252810191909152604001600020805460ff191691151591909117905580611c5d81612d8f565b915050611bf3565b5050505050565b611c768133612151565b50565b60008281526003602090815260408083208151610140810190925280548252600181018054859484019190611cad90612d29565b80601f0160208091040260200160405190810160405280929190818152602001828054611cd990612d29565b8015611d265780601f10611cfb57610100808354040283529160200191611d26565b820191906000526020600020905b815481529060010190602001808311611d0957829003601f168201915b50505050508152602001600282018054611d3f90612d29565b80601f0160208091040260200160405190810160405280929190818152602001828054611d6b90612d29565b8015611db85780601f10611d8d57610100808354040283529160200191611db8565b820191906000526020600020905b815481529060010190602001808311611d9b57829003601f168201915b50505050508152602001600382018054611dd190612d29565b80601f0160208091040260200160405190810160405280929190818152602001828054611dfd90612d29565b8015611e4a5780601f10611e1f57610100808354040283529160200191611e4a565b820191906000526020600020905b815481529060010190602001808311611e2d57829003601f168201915b505050505081526020016004820154815260200160058201548152602001600682018054611e7790612d29565b80601f0160208091040260200160405190810160405280929190818152602001828054611ea390612d29565b8015611ef05780601f10611ec557610100808354040283529160200191611ef0565b820191906000526020600020905b815481529060010190602001808311611ed357829003601f168201915b5050505050815260200160078201805480602002602001604051908101604052809291908181526020018280548015611f5257602002820191906000526020600020905b81546001600160a01b03168152600190910190602001808311611f34575b5050505050815260200160088201805480602002602001604051908101604052809291908181526020018280548015611faa57602002820191906000526020600020905b815481526020019060010190808311611f96575b50505091835250506009919091015460ff161515602090910152905060005b8160e001515181101561202957836001600160a01b03168260e001518281518110611ff657611ff6612d63565b60200260200101516001600160a01b0316036120175760019250505061051c565b8061202181612d8f565b915050611fc9565b506000949350505050565b6000828152602081815260408083206001600160a01b038516845290915290205460ff16610330576000828152602081815260408083206001600160a01b03851684529091529020805460ff1916600117905561208e3390565b6001600160a01b0316816001600160a01b0316837f2f8788117e7eff1d82e926ec794901d17c78024a50270940304540a733656f0d60405160405180910390a45050565b6000828152602081815260408083206001600160a01b038516845290915290205460ff1615610330576000828152602081815260408083206001600160a01b0385168085529252808320805460ff1916905551339285917ff6391f5c32d9c69d2a47ea670b442974b53935d1edc7fd64eb21e047a839171b9190a45050565b6000828152602081815260408083206001600160a01b038516845290915290205460ff1661033057612182816121c4565b61218d8360206121d6565b60405160200161219e929190612eb6565b60408051601f198184030181529082905262461bcd60e51b8252610d7d91600401612f37565b606061051c6001600160a01b03831660145b606060006121e5836002612f4a565b6121f0906002612f61565b67ffffffffffffffff811115612208576122086127b5565b6040519080825280601f01601f191660200182016040528015612232576020820181803683370190505b5090507f30000000000000000000000000000000000000000000000000000000000000008160008151811061226957612269612d63565b60200101906001600160f81b031916908160001a9053507f7800000000000000000000000000000000000000000000000000000000000000816001815181106122b4576122b4612d63565b60200101906001600160f81b031916908160001a90535060006122d8846002612f4a565b6122e3906001612f61565b90505b6001811115612368577f303132333435363738396162636465660000000000000000000000000000000085600f166010811061232457612324612d63565b1a60f81b82828151811061233a5761233a612d63565b60200101906001600160f81b031916908160001a90535060049490941c9361236181612f74565b90506122e6565b5083156123b75760405162461bcd60e51b815260206004820181905260248201527f537472696e67733a20686578206c656e67746820696e73756666696369656e746044820152606401610d7d565b9392505050565b828054828255906000526020600020908101928215612420579160200282015b82811115612420578251825473ffffffffffffffffffffffffffffffffffffffff19166001600160a01b039091161782556020909201916001909101906123de565b5061242c92915061246b565b5090565b828054828255906000526020600020908101928215612420579160200282015b82811115612420578251825591602001919060010190612450565b5b8082111561242c576000815560010161246c565b60006020828403121561249257600080fd5b81357fffffffff00000000000000000000000000000000000000000000000000000000811681146123b757600080fd5b6000602082840312156124d457600080fd5b5035919050565b60005b838110156124f65781810151838201526020016124de565b50506000910152565b600081518084526125178160208601602086016124db565b601f01601f19169290920160200192915050565b600081518084526020808501945080840160005b838110156125645781516001600160a01b03168752958201959082019060010161253f565b509495945050505050565b600081518084526020808501945080840160005b8381101561256457815187529582019590820190600101612583565b60006101408251845260208301518160208601526125bf828601826124ff565b915050604083015184820360408601526125d982826124ff565b915050606083015184820360608601526125f382826124ff565b9150506080830151608085015260a083015160a085015260c083015184820360c086015261262182826124ff565b91505060e083015184820360e086015261263b828261252b565b9150506101008084015185830382870152612656838261256f565b925050506101208084015161266e8287018215159052565b5090949350505050565b6000604080835261268b8184018661259f565b6020848203818601528186518084528284019150828160051b85010183890160005b8381101561270f57868303601f190185528151805184528681015187850152888101511515898501526060808201519085015260809081015160a0918501829052906126fb818601836124ff565b9688019694505050908501906001016126ad565b50909a9950505050505050505050565b60006101008a83528060208401526127398184018b6124ff565b9050828103604084015261274d818a6124ff565b9050828103606084015261276181896124ff565b90508660808401528560a084015282810360c084015261278181866124ff565b91505082151560e08301529998505050505050505050565b80356001600160a01b03811681146127b057600080fd5b919050565b634e487b7160e01b600052604160045260246000fd5b604051601f8201601f1916810167ffffffffffffffff811182821017156127f4576127f46127b5565b604052919050565b600082601f83011261280d57600080fd5b813567ffffffffffffffff811115612827576128276127b5565b61283a601f8201601f19166020016127cb565b81815284602083860101111561284f57600080fd5b816020850160208301376000918101602001919091529392505050565b600080600080600080600080610100898b03121561288957600080fd5b61289289612799565b975060208901359650604089013567ffffffffffffffff808211156128b657600080fd5b6128c28c838d016127fc565b975060608b01359150808211156128d857600080fd5b6128e48c838d016127fc565b965060808b01359150808211156128fa57600080fd5b6129068c838d016127fc565b955060a08b0135945060c08b0135935060e08b013591508082111561292a57600080fd5b506129378b828c016127fc565b9150509295985092959890939650565b6000806040838503121561295a57600080fd5b8235915061296a60208401612799565b90509250929050565b60008060006060848603121561298857600080fd5b61299184612799565b95602085013595506040909401359392505050565b600080604083850312156129b957600080fd5b50508035926020909101359150565b858152846020820152831515604082015282606082015260a0608082015260006129f560a08301846124ff565b979650505050505050565b600067ffffffffffffffff821115612a1a57612a1a6127b5565b5060051b60200190565b60006020808385031215612a3757600080fd5b823567ffffffffffffffff811115612a4e57600080fd5b8301601f81018513612a5f57600080fd5b8035612a72612a6d82612a00565b6127cb565b81815260059190911b82018301908381019087831115612a9157600080fd5b928401925b828410156129f557833582529284019290840190612a96565b6000602080830181845280855180835260408601915060408160051b870101925083870160005b82811015612b0457603f19888603018452612af285835161259f565b94509285019290850190600101612ad6565b5092979650505050505050565b600080600080600080600060e0888a031215612b2c57600080fd5b612b3588612799565b9650602088013567ffffffffffffffff80821115612b5257600080fd5b612b5e8b838c016127fc565b975060408a0135915080821115612b7457600080fd5b612b808b838c016127fc565b965060608a0135915080821115612b9657600080fd5b612ba28b838c016127fc565b955060808a0135945060a08a0135935060c08a0135915080821115612bc657600080fd5b50612bd38a828b016127fc565b91505092959891949750929550565b600080600060608486031215612bf757600080fd5b612c0084612799565b925060208401359150612c1560408501612799565b90509250925092565b600082601f830112612c2f57600080fd5b81356020612c3f612a6d83612a00565b82815260059290921b84018101918181019086841115612c5e57600080fd5b8286015b84811015612c8057612c7381612799565b8352918301918301612c62565b509695505050505050565b600080600060608486031215612ca057600080fd5b612ca984612799565b925060208401359150604084013567ffffffffffffffff811115612ccc57600080fd5b612cd886828701612c1e565b9150509250925092565b60008060408385031215612cf557600080fd5b82359150602083013567ffffffffffffffff811115612d1357600080fd5b612d1f85828601612c1e565b9150509250929050565b600181811c90821680612d3d57607f821691505b602082108103612d5d57634e487b7160e01b600052602260045260246000fd5b50919050565b634e487b7160e01b600052603260045260246000fd5b634e487b7160e01b600052601160045260246000fd5b600060018201612da157612da1612d79565b5060010190565b601f821115610e3a57600081815260208120601f850160051c81016020861015612dcf5750805b601f850160051c820191505b81811015612dee57828155600101612ddb565b505050505050565b815167ffffffffffffffff811115612e1057612e106127b5565b612e2481612e1e8454612d29565b84612da8565b602080601f831160018114612e595760008415612e415750858301515b600019600386901b1c1916600185901b178555612dee565b600085815260208120601f198616915b82811015612e8857888601518255948401946001909101908401612e69565b5085821015612ea65787850151600019600388901b60f8161c191681555b5050505050600190811b01905550565b7f416363657373436f6e74726f6c3a206163636f756e7420000000000000000000815260008351612eee8160178501602088016124db565b7f206973206d697373696e6720726f6c65200000000000000000000000000000006017918401918201528351612f2b8160288401602088016124db565b01602801949350505050565b6020815260006123b760208301846124ff565b808202811582820484141761051c5761051c612d79565b8082018082111561051c5761051c612d79565b600081612f8357612f83612d79565b50600019019056fea2646970667358221220534ed7f7a15984920b8d30bc57a6b430ff04f793cec18571858a47b5d942e5bd64736f6c63430008120033",
  "devdoc": {
    "events": {
      "RoleAdminChanged(bytes32,bytes32,bytes32)": {
        "details": "Emitted when `newAdminRole` is set as ``role``'s admin role, replacing `previousAdminRole` `DEFAULT_ADMIN_ROLE` is the starting admin for all roles, despite {RoleAdminChanged} not being emitted signaling this. _Available since v3.1._"
      },
      "RoleGranted(bytes32,address,address)": {
        "details": "Emitted when `account` is granted `role`. `sender` is the account that originated the contract call, an admin role bearer except when using {AccessControl-_setupRole}."
      },
      "RoleRevoked(bytes32,address,address)": {
        "details": "Emitted when `account` is revoked `role`. `sender` is the account that originated the contract call:   - if using `revokeRole`, it is the admin role bearer   - if using `renounceRole`, it is the role bearer (i.e. `account`)"
      }
    },
    "kind": "dev",
    "methods": {
      "getRoleAdmin(bytes32)": {
        "details": "Returns the admin role that controls `role`. See {grantRole} and {revokeRole}. To change a role's admin, use {_setRoleAdmin}."
      },
      "grantRole(bytes32,address)": {
        "details": "Grants `role` to `account`. If `account` had not been already granted `role`, emits a {RoleGranted} event. Requirements: - the caller must have ``role``'s admin role. May emit a {RoleGranted} event."
      },
      "hasRole(bytes32,address)": {
        "details": "Returns `true` if `account` has been granted `role`."
      },
      "removeAdmin(uint256,address)": {
        "details": "TO DO post hackathon"
      },
      "renounceRole(bytes32,address)": {
        "details": "Revokes `role` from the calling account. Roles are often managed via {grantRole} and {revokeRole}: this function's purpose is to provide a mechanism for accounts to lose their privileges if they are compromised (such as when a trusted device is misplaced). If the calling account had been revoked `role`, emits a {RoleRevoked} event. Requirements: - the caller must be `account`. May emit a {RoleRevoked} event."
      },
      "revokeRole(bytes32,address)": {
        "details": "Revokes `role` from `account`. If `account` had been granted `role`, emits a {RoleRevoked} event. Requirements: - the caller must have ``role``'s admin role. May emit a {RoleRevoked} event."
      },
      "supportsInterface(bytes4)": {
        "details": "See {IERC165-supportsInterface}."
      }
    },
    "version": 1
  },
  "userdoc": {
    "events": {
      "VibeCreated(uint256)": {
        "notice": "Events"
      }
    },
    "kind": "user",
    "methods": {
      "addAdmin(address,uint256,address)": {
        "notice": "Add an admin to a vibe"
      },
      "createVibe(address,string,string,string,uint256,uint256,string)": {
        "notice": "Creates a new vibe"
      },
      "getVibes(uint256[])": {
        "notice": "Returns vibes of passed ids"
      },
      "joinVibe(address,uint256,uint256)": {
        "notice": "Joins a vibe"
      },
      "removeAdmin(uint256,address)": {
        "notice": "Removes an admin from a vibe"
      },
      "updateVibe(address,uint256,string,string,string,uint256,uint256,string)": {
        "notice": "Updates an existing vibe"
      }
    },
    "version": 1
  },
  "storageLayout": {
    "storage": [
      {
        "astId": 24,
        "contract": "contracts/Vibe.sol:Vibe",
        "label": "_roles",
        "offset": 0,
        "slot": "0",
        "type": "t_mapping(t_bytes32,t_struct(RoleData)19_storage)"
      },
      {
        "astId": 399,
        "contract": "contracts/Vibe.sol:Vibe",
        "label": "_status",
        "offset": 0,
        "slot": "1",
        "type": "t_uint256"
      },
      {
        "astId": 3640,
        "contract": "contracts/Vibe.sol:Vibe",
        "label": "vibeCounter",
        "offset": 0,
        "slot": "2",
        "type": "t_uint256"
      },
      {
        "astId": 3645,
        "contract": "contracts/Vibe.sol:Vibe",
        "label": "vibes",
        "offset": 0,
        "slot": "3",
        "type": "t_mapping(t_uint256,t_struct(VibeStats)3595_storage)"
      },
      {
        "astId": 3652,
        "contract": "contracts/Vibe.sol:Vibe",
        "label": "vibees",
        "offset": 0,
        "slot": "4",
        "type": "t_mapping(t_uint256,t_mapping(t_uint256,t_struct(VibeeStats)3608_storage))"
      },
      {
        "astId": 3658,
        "contract": "contracts/Vibe.sol:Vibe",
        "label": "whitelist",
        "offset": 0,
        "slot": "5",
        "type": "t_mapping(t_uint256,t_mapping(t_address,t_bool))"
      }
    ],
    "types": {
      "t_address": {
        "encoding": "inplace",
        "label": "address",
        "numberOfBytes": "20"
      },
      "t_array(t_address)dyn_storage": {
        "base": "t_address",
        "encoding": "dynamic_array",
        "label": "address[]",
        "numberOfBytes": "32"
      },
      "t_array(t_uint256)dyn_storage": {
        "base": "t_uint256",
        "encoding": "dynamic_array",
        "label": "uint256[]",
        "numberOfBytes": "32"
      },
      "t_bool": {
        "encoding": "inplace",
        "label": "bool",
        "numberOfBytes": "1"
      },
      "t_bytes32": {
        "encoding": "inplace",
        "label": "bytes32",
        "numberOfBytes": "32"
      },
      "t_mapping(t_address,t_bool)": {
        "encoding": "mapping",
        "key": "t_address",
        "label": "mapping(address => bool)",
        "numberOfBytes": "32",
        "value": "t_bool"
      },
      "t_mapping(t_bytes32,t_struct(RoleData)19_storage)": {
        "encoding": "mapping",
        "key": "t_bytes32",
        "label": "mapping(bytes32 => struct AccessControl.RoleData)",
        "numberOfBytes": "32",
        "value": "t_struct(RoleData)19_storage"
      },
      "t_mapping(t_uint256,t_mapping(t_address,t_bool))": {
        "encoding": "mapping",
        "key": "t_uint256",
        "label": "mapping(uint256 => mapping(address => bool))",
        "numberOfBytes": "32",
        "value": "t_mapping(t_address,t_bool)"
      },
      "t_mapping(t_uint256,t_mapping(t_uint256,t_struct(VibeeStats)3608_storage))": {
        "encoding": "mapping",
        "key": "t_uint256",
        "label": "mapping(uint256 => mapping(uint256 => struct VibeeStats))",
        "numberOfBytes": "32",
        "value": "t_mapping(t_uint256,t_struct(VibeeStats)3608_storage)"
      },
      "t_mapping(t_uint256,t_struct(VibeStats)3595_storage)": {
        "encoding": "mapping",
        "key": "t_uint256",
        "label": "mapping(uint256 => struct VibeStats)",
        "numberOfBytes": "32",
        "value": "t_struct(VibeStats)3595_storage"
      },
      "t_mapping(t_uint256,t_struct(VibeeStats)3608_storage)": {
        "encoding": "mapping",
        "key": "t_uint256",
        "label": "mapping(uint256 => struct VibeeStats)",
        "numberOfBytes": "32",
        "value": "t_struct(VibeeStats)3608_storage"
      },
      "t_string_storage": {
        "encoding": "bytes",
        "label": "string",
        "numberOfBytes": "32"
      },
      "t_struct(RoleData)19_storage": {
        "encoding": "inplace",
        "label": "struct AccessControl.RoleData",
        "members": [
          {
            "astId": 16,
            "contract": "contracts/Vibe.sol:Vibe",
            "label": "members",
            "offset": 0,
            "slot": "0",
            "type": "t_mapping(t_address,t_bool)"
          },
          {
            "astId": 18,
            "contract": "contracts/Vibe.sol:Vibe",
            "label": "adminRole",
            "offset": 0,
            "slot": "1",
            "type": "t_bytes32"
          }
        ],
        "numberOfBytes": "64"
      },
      "t_struct(VibeStats)3595_storage": {
        "encoding": "inplace",
        "label": "struct VibeStats",
        "members": [
          {
            "astId": 3574,
            "contract": "contracts/Vibe.sol:Vibe",
            "label": "id",
            "offset": 0,
            "slot": "0",
            "type": "t_uint256"
          },
          {
            "astId": 3576,
            "contract": "contracts/Vibe.sol:Vibe",
            "label": "name",
            "offset": 0,
            "slot": "1",
            "type": "t_string_storage"
          },
          {
            "astId": 3578,
            "contract": "contracts/Vibe.sol:Vibe",
            "label": "shortName",
            "offset": 0,
            "slot": "2",
            "type": "t_string_storage"
          },
          {
            "astId": 3580,
            "contract": "contracts/Vibe.sol:Vibe",
            "label": "imageUrl",
            "offset": 0,
            "slot": "3",
            "type": "t_string_storage"
          },
          {
            "astId": 3582,
            "contract": "contracts/Vibe.sol:Vibe",
            "label": "startDate",
            "offset": 0,
            "slot": "4",
            "type": "t_uint256"
          },
          {
            "astId": 3584,
            "contract": "contracts/Vibe.sol:Vibe",
            "label": "endDate",
            "offset": 0,
            "slot": "5",
            "type": "t_uint256"
          },
          {
            "astId": 3586,
            "contract": "contracts/Vibe.sol:Vibe",
            "label": "eventType",
            "offset": 0,
            "slot": "6",
            "type": "t_string_storage"
          },
          {
            "astId": 3589,
            "contract": "contracts/Vibe.sol:Vibe",
            "label": "admins",
            "offset": 0,
            "slot": "7",
            "type": "t_array(t_address)dyn_storage"
          },
          {
            "astId": 3592,
            "contract": "contracts/Vibe.sol:Vibe",
            "label": "participantIds",
            "offset": 0,
            "slot": "8",
            "type": "t_array(t_uint256)dyn_storage"
          },
          {
            "astId": 3594,
            "contract": "contracts/Vibe.sol:Vibe",
            "label": "live",
            "offset": 0,
            "slot": "9",
            "type": "t_bool"
          }
        ],
        "numberOfBytes": "320"
      },
      "t_struct(VibeeStats)3608_storage": {
        "encoding": "inplace",
        "label": "struct VibeeStats",
        "members": [
          {
            "astId": 3599,
            "contract": "contracts/Vibe.sol:Vibe",
            "label": "vibe",
            "offset": 0,
            "slot": "0",
            "type": "t_uint256"
          },
          {
            "astId": 3601,
            "contract": "contracts/Vibe.sol:Vibe",
            "label": "viber",
            "offset": 0,
            "slot": "1",
            "type": "t_uint256"
          },
          {
            "astId": 3603,
            "contract": "contracts/Vibe.sol:Vibe",
            "label": "exists",
            "offset": 0,
            "slot": "2",
            "type": "t_bool"
          },
          {
            "astId": 3605,
            "contract": "contracts/Vibe.sol:Vibe",
            "label": "achievements",
            "offset": 0,
            "slot": "3",
            "type": "t_uint256"
          },
          {
            "astId": 3607,
            "contract": "contracts/Vibe.sol:Vibe",
            "label": "status",
            "offset": 0,
            "slot": "4",
            "type": "t_string_storage"
          }
        ],
        "numberOfBytes": "160"
      },
      "t_uint256": {
        "encoding": "inplace",
        "label": "uint256",
        "numberOfBytes": "32"
      }
    }
  }
}